{
  "contractName": "Africoin",
  "abi": [
    {
      "inputs": [
        {
          "internalType": "uint256",
          "name": "initialSupply",
          "type": "uint256"
        }
      ],
      "stateMutability": "nonpayable",
      "type": "constructor"
    },
    {
      "inputs": [
        {
          "internalType": "address",
          "name": "spender",
          "type": "address"
        },
        {
          "internalType": "uint256",
          "name": "allowance",
          "type": "uint256"
        },
        {
          "internalType": "uint256",
          "name": "needed",
          "type": "uint256"
        }
      ],
      "name": "ERC20InsufficientAllowance",
      "type": "error"
    },
    {
      "inputs": [
        {
          "internalType": "address",
          "name": "sender",
          "type": "address"
        },
        {
          "internalType": "uint256",
          "name": "balance",
          "type": "uint256"
        },
        {
          "internalType": "uint256",
          "name": "needed",
          "type": "uint256"
        }
      ],
      "name": "ERC20InsufficientBalance",
      "type": "error"
    },
    {
      "inputs": [
        {
          "internalType": "address",
          "name": "approver",
          "type": "address"
        }
      ],
      "name": "ERC20InvalidApprover",
      "type": "error"
    },
    {
      "inputs": [
        {
          "internalType": "address",
          "name": "receiver",
          "type": "address"
        }
      ],
      "name": "ERC20InvalidReceiver",
      "type": "error"
    },
    {
      "inputs": [
        {
          "internalType": "address",
          "name": "sender",
          "type": "address"
        }
      ],
      "name": "ERC20InvalidSender",
      "type": "error"
    },
    {
      "inputs": [
        {
          "internalType": "address",
          "name": "spender",
          "type": "address"
        }
      ],
      "name": "ERC20InvalidSpender",
      "type": "error"
    },
    {
      "inputs": [
        {
          "internalType": "address",
          "name": "owner",
          "type": "address"
        }
      ],
      "name": "OwnableInvalidOwner",
      "type": "error"
    },
    {
      "inputs": [
        {
          "internalType": "address",
          "name": "account",
          "type": "address"
        }
      ],
      "name": "OwnableUnauthorizedAccount",
      "type": "error"
    },
    {
      "anonymous": false,
      "inputs": [
        {
          "indexed": true,
          "internalType": "address",
          "name": "admin",
          "type": "address"
        }
      ],
      "name": "AdminAdded",
      "type": "event"
    },
    {
      "anonymous": false,
      "inputs": [
        {
          "indexed": true,
          "internalType": "address",
          "name": "admin",
          "type": "address"
        }
      ],
      "name": "AdminRemoved",
      "type": "event"
    },
    {
      "anonymous": false,
      "inputs": [
        {
          "indexed": true,
          "internalType": "address",
          "name": "owner",
          "type": "address"
        },
        {
          "indexed": true,
          "internalType": "address",
          "name": "spender",
          "type": "address"
        },
        {
          "indexed": false,
          "internalType": "uint256",
          "name": "value",
          "type": "uint256"
        }
      ],
      "name": "Approval",
      "type": "event"
    },
    {
      "anonymous": false,
      "inputs": [
        {
          "indexed": true,
          "internalType": "address",
          "name": "previousOwner",
          "type": "address"
        },
        {
          "indexed": true,
          "internalType": "address",
          "name": "newOwner",
          "type": "address"
        }
      ],
      "name": "OwnershipTransferred",
      "type": "event"
    },
    {
      "anonymous": false,
      "inputs": [
        {
          "indexed": true,
          "internalType": "address",
          "name": "from",
          "type": "address"
        },
        {
          "indexed": true,
          "internalType": "address",
          "name": "to",
          "type": "address"
        },
        {
          "indexed": false,
          "internalType": "uint256",
          "name": "value",
          "type": "uint256"
        }
      ],
      "name": "Transfer",
      "type": "event"
    },
    {
      "inputs": [
        {
          "internalType": "address",
          "name": "admin",
          "type": "address"
        }
      ],
      "name": "addAdmin",
      "outputs": [],
      "stateMutability": "nonpayable",
      "type": "function"
    },
    {
      "inputs": [
        {
          "internalType": "address",
          "name": "owner",
          "type": "address"
        },
        {
          "internalType": "address",
          "name": "spender",
          "type": "address"
        }
      ],
      "name": "allowance",
      "outputs": [
        {
          "internalType": "uint256",
          "name": "",
          "type": "uint256"
        }
      ],
      "stateMutability": "view",
      "type": "function"
    },
    {
      "inputs": [
        {
          "internalType": "address",
          "name": "spender",
          "type": "address"
        },
        {
          "internalType": "uint256",
          "name": "value",
          "type": "uint256"
        }
      ],
      "name": "approve",
      "outputs": [
        {
          "internalType": "bool",
          "name": "",
          "type": "bool"
        }
      ],
      "stateMutability": "nonpayable",
      "type": "function"
    },
    {
      "inputs": [
        {
          "internalType": "address",
          "name": "account",
          "type": "address"
        }
      ],
      "name": "balanceOf",
      "outputs": [
        {
          "internalType": "uint256",
          "name": "",
          "type": "uint256"
        }
      ],
      "stateMutability": "view",
      "type": "function"
    },
    {
      "inputs": [],
      "name": "decimals",
      "outputs": [
        {
          "internalType": "uint8",
          "name": "",
          "type": "uint8"
        }
      ],
      "stateMutability": "view",
      "type": "function"
    },
    {
      "inputs": [
        {
          "internalType": "address",
          "name": "admin",
          "type": "address"
        }
      ],
      "name": "isAdmin",
      "outputs": [
        {
          "internalType": "bool",
          "name": "",
          "type": "bool"
        }
      ],
      "stateMutability": "view",
      "type": "function"
    },
    {
      "inputs": [
        {
          "internalType": "address",
          "name": "to",
          "type": "address"
        },
        {
          "internalType": "uint256",
          "name": "amount",
          "type": "uint256"
        }
      ],
      "name": "mint",
      "outputs": [],
      "stateMutability": "nonpayable",
      "type": "function"
    },
    {
      "inputs": [],
      "name": "name",
      "outputs": [
        {
          "internalType": "string",
          "name": "",
          "type": "string"
        }
      ],
      "stateMutability": "view",
      "type": "function"
    },
    {
      "inputs": [],
      "name": "owner",
      "outputs": [
        {
          "internalType": "address",
          "name": "",
          "type": "address"
        }
      ],
      "stateMutability": "view",
      "type": "function"
    },
    {
      "inputs": [
        {
          "internalType": "address",
          "name": "admin",
          "type": "address"
        }
      ],
      "name": "removeAdmin",
      "outputs": [],
      "stateMutability": "nonpayable",
      "type": "function"
    },
    {
      "inputs": [],
      "name": "renounceOwnership",
      "outputs": [],
      "stateMutability": "nonpayable",
      "type": "function"
    },
    {
      "inputs": [],
      "name": "symbol",
      "outputs": [
        {
          "internalType": "string",
          "name": "",
          "type": "string"
        }
      ],
      "stateMutability": "view",
      "type": "function"
    },
    {
      "inputs": [],
      "name": "totalSupply",
      "outputs": [
        {
          "internalType": "uint256",
          "name": "",
          "type": "uint256"
        }
      ],
      "stateMutability": "view",
      "type": "function"
    },
    {
      "inputs": [
        {
          "internalType": "address",
          "name": "to",
          "type": "address"
        },
        {
          "internalType": "uint256",
          "name": "value",
          "type": "uint256"
        }
      ],
      "name": "transfer",
      "outputs": [
        {
          "internalType": "bool",
          "name": "",
          "type": "bool"
        }
      ],
      "stateMutability": "nonpayable",
      "type": "function"
    },
    {
      "inputs": [
        {
          "internalType": "address",
          "name": "from",
          "type": "address"
        },
        {
          "internalType": "address",
          "name": "to",
          "type": "address"
        },
        {
          "internalType": "uint256",
          "name": "value",
          "type": "uint256"
        }
      ],
      "name": "transferFrom",
      "outputs": [
        {
          "internalType": "bool",
          "name": "",
          "type": "bool"
        }
      ],
      "stateMutability": "nonpayable",
      "type": "function"
    },
    {
      "inputs": [
        {
          "internalType": "address",
          "name": "newOwner",
          "type": "address"
        }
      ],
      "name": "transferOwnership",
      "outputs": [],
      "stateMutability": "nonpayable",
      "type": "function"
    }
  ],
  "bytecode": "0x60806040523480156200001157600080fd5b50d380156200001f57600080fd5b50d280156200002d57600080fd5b506040516200203e3803806200203e8339818101604052810190620000539190620005e2565b336040518060400160405280600881526020017f41667269636f696e0000000000000000000000000000000000000000000000008152506040518060400160405280600381526020017f41464300000000000000000000000000000000000000000000000000000000008152508160039080519060200190620000d89291906200051b565b508060049080519060200190620000f19291906200051b565b505050600073ffffffffffffffffffffffffffffffffffffffff168173ffffffffffffffffffffffffffffffffffffffff1614156200016a5760006040517f1e4fbdf700000000000000000000000000000000000000000000000000000000815260040162000161919062000636565b60405180910390fd5b6200017b816200019560201b60201c565b506200018e33826200025b60201b60201c565b50620007fb565b6000600560009054906101000a900473ffffffffffffffffffffffffffffffffffffffff16905081600560006101000a81548173ffffffffffffffffffffffffffffffffffffffff021916908373ffffffffffffffffffffffffffffffffffffffff1602179055508173ffffffffffffffffffffffffffffffffffffffff168173ffffffffffffffffffffffffffffffffffffffff167f8be0079c531659141344cd1fd0a4f28419497f9722a3daafe3b4186f6b6457e060405160405180910390a35050565b600073ffffffffffffffffffffffffffffffffffffffff168273ffffffffffffffffffffffffffffffffffffffff161415620002d15760006040517fec442f05000000000000000000000000000000000000000000000000000000008152600401620002c8919062000636565b60405180910390fd5b620002e560008383620002e960201b60201c565b5050565b600073ffffffffffffffffffffffffffffffffffffffff168373ffffffffffffffffffffffffffffffffffffffff16141562000340578060026000828254620003339190620006ad565b9250508190555062000416565b60008060008573ffffffffffffffffffffffffffffffffffffffff1673ffffffffffffffffffffffffffffffffffffffff16815260200190815260200160002054905081811015620003cf578381836040517fe450d38c000000000000000000000000000000000000000000000000000000008152600401620003c69392919062000653565b60405180910390fd5b8181036000808673ffffffffffffffffffffffffffffffffffffffff1673ffffffffffffffffffffffffffffffffffffffff16815260200190815260200160002081905550505b600073ffffffffffffffffffffffffffffffffffffffff168273ffffffffffffffffffffffffffffffffffffffff161415620004625780600260008282540392505081905550620004af565b806000808473ffffffffffffffffffffffffffffffffffffffff1673ffffffffffffffffffffffffffffffffffffffff168152602001908152602001600020600082825401925050819055505b8173ffffffffffffffffffffffffffffffffffffffff168373ffffffffffffffffffffffffffffffffffffffff167fddf252ad1be2c89b69c2b068fc378daa952ba7f163c4a11628f55a4df523b3ef836040516200050e919062000690565b60405180910390a3505050565b828054620005299062000748565b90600052602060002090601f0160209004810192826200054d576000855562000599565b82601f106200056857805160ff191683800117855562000599565b8280016001018555821562000599579182015b82811115620005985782518255916020019190600101906200057b565b5b509050620005a89190620005ac565b5090565b5b80821115620005c7576000816000905550600101620005ad565b5090565b600081519050620005dc81620007e1565b92915050565b600060208284031215620005fb57620005fa620007dc565b5b60006200060b84828501620005cb565b91505092915050565b6200061f816200070a565b82525050565b62000630816200073e565b82525050565b60006020820190506200064d600083018462000614565b92915050565b60006060820190506200066a600083018662000614565b62000679602083018562000625565b62000688604083018462000625565b949350505050565b6000602082019050620006a7600083018462000625565b92915050565b6000620006ba826200073e565b9150620006c7836200073e565b9250827fffffffffffffffffffffffffffffffffffffffffffffffffffffffffffffffff03821115620006ff57620006fe6200077e565b5b828201905092915050565b600062000717826200071e565b9050919050565b600073ffffffffffffffffffffffffffffffffffffffff82169050919050565b6000819050919050565b600060028204905060018216806200076157607f821691505b60208210811415620007785762000777620007ad565b5b50919050565b7f4e487b7100000000000000000000000000000000000000000000000000000000600052601160045260246000fd5b7f4e487b7100000000000000000000000000000000000000000000000000000000600052602260045260246000fd5b600080fd5b620007ec816200073e565b8114620007f857600080fd5b50565b611833806200080b6000396000f3fe608060405234801561001057600080fd5b50d3801561001d57600080fd5b50d2801561002a57600080fd5b506004361061011a5760003560e01c806370480275116100b157806395d89b411161008057806395d89b41146102b5578063a9059cbb146102d3578063dd62ed3e14610303578063f2fde38b146103335761011a565b8063704802751461024157806370a082311461025d578063715018a61461028d5780638da5cb5b146102975761011a565b806323b872dd116100ed57806323b872dd146101a757806324d7806c146101d7578063313ce5671461020757806340c10f19146102255761011a565b806306fdde031461011f578063095ea7b31461013d5780631785f53c1461016d57806318160ddd14610189575b600080fd5b61012761034f565b604051610134919061146c565b60405180910390f35b610157600480360381019061015291906112be565b6103e1565b6040516101649190611451565b60405180910390f35b610187600480360381019061018291906111fe565b610404565b005b610191610536565b60405161019e919061150e565b60405180910390f35b6101c160048036038101906101bc919061126b565b610540565b6040516101ce9190611451565b60405180910390f35b6101f160048036038101906101ec91906111fe565b61056f565b6040516101fe9190611451565b60405180910390f35b61020f6105c5565b60405161021c9190611529565b60405180910390f35b61023f600480360381019061023a91906112be565b6105ce565b005b61025b600480360381019061025691906111fe565b610668565b005b610277600480360381019061027291906111fe565b61080b565b604051610284919061150e565b60405180910390f35b610295610853565b005b61029f610867565b6040516102ac91906113ff565b60405180910390f35b6102bd610891565b6040516102ca919061146c565b60405180910390f35b6102ed60048036038101906102e891906112be565b610923565b6040516102fa9190611451565b60405180910390f35b61031d6004803603810190610318919061122b565b610946565b60405161032a919061150e565b60405180910390f35b61034d600480360381019061034891906111fe565b6109cd565b005b60606003805461035e9061165f565b80601f016020809104026020016040519081016040528092919081815260200182805461038a9061165f565b80156103d75780601f106103ac576101008083540402835291602001916103d7565b820191906000526020600020905b8154815290600101906020018083116103ba57829003601f168201915b5050505050905090565b6000806103ec610a54565b90506103f9818585610a5c565b600191505092915050565b61040c610a6e565b600660008273ffffffffffffffffffffffffffffffffffffffff1673ffffffffffffffffffffffffffffffffffffffff16815260200190815260200160002060009054906101000a900460ff16610498576040517f08c379a000000000000000000000000000000000000000000000000000000000815260040161048f906114ee565b60405180910390fd5b6000600660008373ffffffffffffffffffffffffffffffffffffffff1673ffffffffffffffffffffffffffffffffffffffff16815260200190815260200160002060006101000a81548160ff0219169083151502179055508073ffffffffffffffffffffffffffffffffffffffff167fa3b62bc36326052d97ea62d63c3d60308ed4c3ea8ac079dd8499f1e9c4f80c0f60405160405180910390a250565b6000600254905090565b60008061054b610a54565b9050610558858285610af5565b610563858585610b8a565b60019150509392505050565b6000600660008373ffffffffffffffffffffffffffffffffffffffff1673ffffffffffffffffffffffffffffffffffffffff16815260200190815260200160002060009054906101000a900460ff169050919050565b60006012905090565b600660003373ffffffffffffffffffffffffffffffffffffffff1673ffffffffffffffffffffffffffffffffffffffff16815260200190815260200160002060009054906101000a900460ff1661065a576040517f08c379a00000000000000000000000000000000000000000000000000000000081526004016106519061148e565b60405180910390fd5b6106648282610c80565b5050565b610670610a6e565b600073ffffffffffffffffffffffffffffffffffffffff168173ffffffffffffffffffffffffffffffffffffffff1614156106e0576040517f08c379a00000000000000000000000000000000000000000000000000000000081526004016106d7906114ae565b60405180910390fd5b600660008273ffffffffffffffffffffffffffffffffffffffff1673ffffffffffffffffffffffffffffffffffffffff16815260200190815260200160002060009054906101000a900460ff161561076d576040517f08c379a0000000000000000000000000000000000000000000000000000000008152600401610764906114ce565b60405180910390fd5b6001600660008373ffffffffffffffffffffffffffffffffffffffff1673ffffffffffffffffffffffffffffffffffffffff16815260200190815260200160002060006101000a81548160ff0219169083151502179055508073ffffffffffffffffffffffffffffffffffffffff167f44d6d25963f097ad14f29f06854a01f575648a1ef82f30e562ccd3889717e33960405160405180910390a250565b60008060008373ffffffffffffffffffffffffffffffffffffffff1673ffffffffffffffffffffffffffffffffffffffff168152602001908152602001600020549050919050565b61085b610a6e565b6108656000610d03565b565b6000600560009054906101000a900473ffffffffffffffffffffffffffffffffffffffff16905090565b6060600480546108a09061165f565b80601f01602080910402602001604051908101604052809291908181526020018280546108cc9061165f565b80156109195780601f106108ee57610100808354040283529160200191610919565b820191906000526020600020905b8154815290600101906020018083116108fc57829003601f168201915b5050505050905090565b60008061092e610a54565b905061093b818585610b8a565b600191505092915050565b6000600160008473ffffffffffffffffffffffffffffffffffffffff1673ffffffffffffffffffffffffffffffffffffffff16815260200190815260200160002060008373ffffffffffffffffffffffffffffffffffffffff1673ffffffffffffffffffffffffffffffffffffffff16815260200190815260200160002054905092915050565b6109d5610a6e565b600073ffffffffffffffffffffffffffffffffffffffff168173ffffffffffffffffffffffffffffffffffffffff161415610a485760006040517f1e4fbdf7000000000000000000000000000000000000000000000000000000008152600401610a3f91906113ff565b60405180910390fd5b610a5181610d03565b50565b600033905090565b610a698383836001610dc9565b505050565b610a76610a54565b73ffffffffffffffffffffffffffffffffffffffff16610a94610867565b73ffffffffffffffffffffffffffffffffffffffff1614610af357610ab7610a54565b6040517f118cdaa7000000000000000000000000000000000000000000000000000000008152600401610aea91906113ff565b60405180910390fd5b565b6000610b018484610946565b90507fffffffffffffffffffffffffffffffffffffffffffffffffffffffffffffffff811015610b845781811015610b74578281836040517ffb8f41b2000000000000000000000000000000000000000000000000000000008152600401610b6b9392919061141a565b60405180910390fd5b610b8384848484036000610dc9565b5b50505050565b600073ffffffffffffffffffffffffffffffffffffffff168373ffffffffffffffffffffffffffffffffffffffff161415610bfd5760006040517f96c6fd1e000000000000000000000000000000000000000000000000000000008152600401610bf491906113ff565b60405180910390fd5b600073ffffffffffffffffffffffffffffffffffffffff168273ffffffffffffffffffffffffffffffffffffffff161415610c705760006040517fec442f05000000000000000000000000000000000000000000000000000000008152600401610c6791906113ff565b60405180910390fd5b610c7b838383610fa2565b505050565b600073ffffffffffffffffffffffffffffffffffffffff168273ffffffffffffffffffffffffffffffffffffffff161415610cf35760006040517fec442f05000000000000000000000000000000000000000000000000000000008152600401610cea91906113ff565b60405180910390fd5b610cff60008383610fa2565b5050565b6000600560009054906101000a900473ffffffffffffffffffffffffffffffffffffffff16905081600560006101000a81548173ffffffffffffffffffffffffffffffffffffffff021916908373ffffffffffffffffffffffffffffffffffffffff1602179055508173ffffffffffffffffffffffffffffffffffffffff168173ffffffffffffffffffffffffffffffffffffffff167f8be0079c531659141344cd1fd0a4f28419497f9722a3daafe3b4186f6b6457e060405160405180910390a35050565b600073ffffffffffffffffffffffffffffffffffffffff168473ffffffffffffffffffffffffffffffffffffffff161415610e3c5760006040517fe602df05000000000000000000000000000000000000000000000000000000008152600401610e3391906113ff565b60405180910390fd5b600073ffffffffffffffffffffffffffffffffffffffff168373ffffffffffffffffffffffffffffffffffffffff161415610eaf5760006040517f94280d62000000000000000000000000000000000000000000000000000000008152600401610ea691906113ff565b60405180910390fd5b81600160008673ffffffffffffffffffffffffffffffffffffffff1673ffffffffffffffffffffffffffffffffffffffff16815260200190815260200160002060008573ffffffffffffffffffffffffffffffffffffffff1673ffffffffffffffffffffffffffffffffffffffff168152602001908152602001600020819055508015610f9c578273ffffffffffffffffffffffffffffffffffffffff168473ffffffffffffffffffffffffffffffffffffffff167f8c5be1e5ebec7d5bd14f71427d1e84f3dd0314c0f7b2291e5b200ac8c7c3b92584604051610f93919061150e565b60405180910390a35b50505050565b600073ffffffffffffffffffffffffffffffffffffffff168373ffffffffffffffffffffffffffffffffffffffff161415610ff5578060026000828254610fe99190611560565b925050819055506110c8565b60008060008573ffffffffffffffffffffffffffffffffffffffff1673ffffffffffffffffffffffffffffffffffffffff16815260200190815260200160002054905081811015611081578381836040517fe450d38c0000000000000000000000000000000000000000000000000000000081526004016110789392919061141a565b60405180910390fd5b8181036000808673ffffffffffffffffffffffffffffffffffffffff1673ffffffffffffffffffffffffffffffffffffffff16815260200190815260200160002081905550505b600073ffffffffffffffffffffffffffffffffffffffff168273ffffffffffffffffffffffffffffffffffffffff161415611112578060026000828254039250508190555061115f565b806000808473ffffffffffffffffffffffffffffffffffffffff1673ffffffffffffffffffffffffffffffffffffffff168152602001908152602001600020600082825401925050819055505b8173ffffffffffffffffffffffffffffffffffffffff168373ffffffffffffffffffffffffffffffffffffffff167fddf252ad1be2c89b69c2b068fc378daa952ba7f163c4a11628f55a4df523b3ef836040516111bc919061150e565b60405180910390a3505050565b6000813590506111d8816117cf565b6111e1816115b6565b905092915050565b6000813590506111f8816117e6565b92915050565b600060208284031215611214576112136116ef565b5b6000611222848285016111c9565b91505092915050565b60008060408385031215611242576112416116ef565b5b6000611250858286016111c9565b9250506020611261858286016111c9565b9150509250929050565b600080600060608486031215611284576112836116ef565b5b6000611292868287016111c9565b93505060206112a3868287016111c9565b92505060406112b4868287016111e9565b9150509250925092565b600080604083850312156112d5576112d46116ef565b5b60006112e3858286016111c9565b92505060206112f4858286016111e9565b9150509250929050565b611307816115b6565b82525050565b611316816115c8565b82525050565b600061132782611544565b611331818561154f565b935061134181856020860161162c565b61134a816116f4565b840191505092915050565b600061136260208361154f565b915061136d82611705565b602082019050919050565b600061138560238361154f565b91506113908261172e565b604082019050919050565b60006113a8601a8361154f565b91506113b38261177d565b602082019050919050565b60006113cb60168361154f565b91506113d6826117a6565b602082019050919050565b6113ea81611615565b82525050565b6113f98161161f565b82525050565b600060208201905061141460008301846112fe565b92915050565b600060608201905061142f60008301866112fe565b61143c60208301856113e1565b61144960408301846113e1565b949350505050565b6000602082019050611466600083018461130d565b92915050565b60006020820190508181036000830152611486818461131c565b905092915050565b600060208201905081810360008301526114a781611355565b9050919050565b600060208201905081810360008301526114c781611378565b9050919050565b600060208201905081810360008301526114e78161139b565b9050919050565b60006020820190508181036000830152611507816113be565b9050919050565b600060208201905061152360008301846113e1565b92915050565b600060208201905061153e60008301846113f0565b92915050565b600081519050919050565b600082825260208201905092915050565b600061156b82611615565b915061157683611615565b9250827fffffffffffffffffffffffffffffffffffffffffffffffffffffffffffffffff038211156115ab576115aa611691565b5b828201905092915050565b60006115c1826115d4565b9050919050565b60008115159050919050565b600073ffffffffffffffffffffffffffffffffffffffff82169050919050565b600074ffffffffffffffffffffffffffffffffffffffffff82169050919050565b6000819050919050565b600060ff82169050919050565b60005b8381101561164a57808201518184015260208101905061162f565b83811115611659576000848401525b50505050565b6000600282049050600182168061167757607f821691505b6020821081141561168b5761168a6116c0565b5b50919050565b7f4e487b7100000000000000000000000000000000000000000000000000000000600052601160045260246000fd5b7f4e487b7100000000000000000000000000000000000000000000000000000000600052602260045260246000fd5b600080fd5b6000601f19601f8301169050919050565b7f41667269636f696e3a2063616c6c6572206973206e6f7420616e2061646d696e600082015250565b7f41667269636f696e3a2061646d696e20697320746865207a65726f206164647260008201527f6573730000000000000000000000000000000000000000000000000000000000602082015250565b7f41667269636f696e3a20616c726561647920616e2061646d696e000000000000600082015250565b7f41667269636f696e3a206e6f7420616e2061646d696e00000000000000000000600082015250565b6117d8816115f4565b81146117e357600080fd5b50565b6117ef81611615565b81146117fa57600080fd5b5056fea26474726f6e582212201bfa83ad994e2202640ef2677ab61bbc582782bcdcf2039c22605a717194dda464736f6c63430008060033",
  "source": "// SPDX-License-Identifier: MIT\npragma solidity ^0.8.6 ;\n\n// lib/openzeppelin-contracts/contracts/utils/Context.sol\n\n// OpenZeppelin Contracts (last updated v5.0.1) (utils/Context.sol)\n\n/**\n * @dev Provides information about the current execution context, including the\n * sender of the transaction and its data. While these are generally available\n * via msg.sender and msg.data, they should not be accessed in such a direct\n * manner, since when dealing with meta-transactions the account sending and\n * paying for execution may not be the actual sender (as far as an application\n * is concerned).\n *\n * This contract is only required for intermediate, library-like contracts.\n */\nabstract contract Context {\n    function _msgSender() internal view virtual returns (address) {\n        return msg.sender;\n    }\n\n    function _msgData() internal view virtual returns (bytes calldata) {\n        return msg.data;\n    }\n\n    function _contextSuffixLength() internal view virtual returns (uint256) {\n        return 0;\n    }\n}\n\n// lib/openzeppelin-contracts/contracts/token/ERC20/IERC20.sol\n\n// OpenZeppelin Contracts (last updated v5.1.0) (token/ERC20/IERC20.sol)\n\n/**\n * @dev Interface of the ERC-20 standard as defined in the ERC.\n */\ninterface IERC20 {\n    /**\n     * @dev Emitted when `value` tokens are moved from one account (`from`) to\n     * another (`to`).\n     *\n     * Note that `value` may be zero.\n     */\n    event Transfer(address indexed from, address indexed to, uint256 value);\n\n    /**\n     * @dev Emitted when the allowance of a `spender` for an `owner` is set by\n     * a call to {approve}. `value` is the new allowance.\n     */\n    event Approval(address indexed owner, address indexed spender, uint256 value);\n\n    /**\n     * @dev Returns the value of tokens in existence.\n     */\n    function totalSupply() external view returns (uint256);\n\n    /**\n     * @dev Returns the value of tokens owned by `account`.\n     */\n    function balanceOf(address account) external view returns (uint256);\n\n    /**\n     * @dev Moves a `value` amount of tokens from the caller's account to `to`.\n     *\n     * Returns a boolean value indicating whether the operation succeeded.\n     *\n     * Emits a {Transfer} event.\n     */\n    function transfer(address to, uint256 value) external returns (bool);\n\n    /**\n     * @dev Returns the remaining number of tokens that `spender` will be\n     * allowed to spend on behalf of `owner` through {transferFrom}. This is\n     * zero by default.\n     *\n     * This value changes when {approve} or {transferFrom} are called.\n     */\n    function allowance(address owner, address spender) external view returns (uint256);\n\n    /**\n     * @dev Sets a `value` amount of tokens as the allowance of `spender` over the\n     * caller's tokens.\n     *\n     * Returns a boolean value indicating whether the operation succeeded.\n     *\n     * IMPORTANT: Beware that changing an allowance with this method brings the risk\n     * that someone may use both the old and the new allowance by unfortunate\n     * transaction ordering. One possible solution to mitigate this race\n     * condition is to first reduce the spender's allowance to 0 and set the\n     * desired value afterwards:\n     * https://github.com/ethereum/EIPs/issues/20#issuecomment-263524729\n     *\n     * Emits an {Approval} event.\n     */\n    function approve(address spender, uint256 value) external returns (bool);\n\n    /**\n     * @dev Moves a `value` amount of tokens from `from` to `to` using the\n     * allowance mechanism. `value` is then deducted from the caller's\n     * allowance.\n     *\n     * Returns a boolean value indicating whether the operation succeeded.\n     *\n     * Emits a {Transfer} event.\n     */\n    function transferFrom(address from, address to, uint256 value) external returns (bool);\n}\n\n// lib/openzeppelin-contracts/contracts/interfaces/draft-IERC6093.sol\n\n// OpenZeppelin Contracts (last updated v5.1.0) (interfaces/draft-IERC6093.sol)\n\n/**\n * @dev Standard ERC-20 Errors\n * Interface of the https://eips.ethereum.org/EIPS/eip-6093[ERC-6093] custom errors for ERC-20 tokens.\n */\ninterface IERC20Errors {\n    /**\n     * @dev Indicates an error related to the current `balance` of a `sender`. Used in transfers.\n     * @param sender Address whose tokens are being transferred.\n     * @param balance Current balance for the interacting account.\n     * @param needed Minimum amount required to perform a transfer.\n     */\n    error ERC20InsufficientBalance(address sender, uint256 balance, uint256 needed);\n\n    /**\n     * @dev Indicates a failure with the token `sender`. Used in transfers.\n     * @param sender Address whose tokens are being transferred.\n     */\n    error ERC20InvalidSender(address sender);\n\n    /**\n     * @dev Indicates a failure with the token `receiver`. Used in transfers.\n     * @param receiver Address to which tokens are being transferred.\n     */\n    error ERC20InvalidReceiver(address receiver);\n\n    /**\n     * @dev Indicates a failure with the `spender`s `allowance`. Used in transfers.\n     * @param spender Address that may be allowed to operate on tokens without being their owner.\n     * @param allowance Amount of tokens a `spender` is allowed to operate with.\n     * @param needed Minimum amount required to perform a transfer.\n     */\n    error ERC20InsufficientAllowance(address spender, uint256 allowance, uint256 needed);\n\n    /**\n     * @dev Indicates a failure with the `approver` of a token to be approved. Used in approvals.\n     * @param approver Address initiating an approval operation.\n     */\n    error ERC20InvalidApprover(address approver);\n\n    /**\n     * @dev Indicates a failure with the `spender` to be approved. Used in approvals.\n     * @param spender Address that may be allowed to operate on tokens without being their owner.\n     */\n    error ERC20InvalidSpender(address spender);\n}\n\n/**\n * @dev Standard ERC-721 Errors\n * Interface of the https://eips.ethereum.org/EIPS/eip-6093[ERC-6093] custom errors for ERC-721 tokens.\n */\ninterface IERC721Errors {\n    /**\n     * @dev Indicates that an address can't be an owner. For example, `address(0)` is a forbidden owner in ERC-20.\n     * Used in balance queries.\n     * @param owner Address of the current owner of a token.\n     */\n    error ERC721InvalidOwner(address owner);\n\n    /**\n     * @dev Indicates a `tokenId` whose `owner` is the zero address.\n     * @param tokenId Identifier number of a token.\n     */\n    error ERC721NonexistentToken(uint256 tokenId);\n\n    /**\n     * @dev Indicates an error related to the ownership over a particular token. Used in transfers.\n     * @param sender Address whose tokens are being transferred.\n     * @param tokenId Identifier number of a token.\n     * @param owner Address of the current owner of a token.\n     */\n    error ERC721IncorrectOwner(address sender, uint256 tokenId, address owner);\n\n    /**\n     * @dev Indicates a failure with the token `sender`. Used in transfers.\n     * @param sender Address whose tokens are being transferred.\n     */\n    error ERC721InvalidSender(address sender);\n\n    /**\n     * @dev Indicates a failure with the token `receiver`. Used in transfers.\n     * @param receiver Address to which tokens are being transferred.\n     */\n    error ERC721InvalidReceiver(address receiver);\n\n    /**\n     * @dev Indicates a failure with the `operator`s approval. Used in transfers.\n     * @param operator Address that may be allowed to operate on tokens without being their owner.\n     * @param tokenId Identifier number of a token.\n     */\n    error ERC721InsufficientApproval(address operator, uint256 tokenId);\n\n    /**\n     * @dev Indicates a failure with the `approver` of a token to be approved. Used in approvals.\n     * @param approver Address initiating an approval operation.\n     */\n    error ERC721InvalidApprover(address approver);\n\n    /**\n     * @dev Indicates a failure with the `operator` to be approved. Used in approvals.\n     * @param operator Address that may be allowed to operate on tokens without being their owner.\n     */\n    error ERC721InvalidOperator(address operator);\n}\n\n/**\n * @dev Standard ERC-1155 Errors\n * Interface of the https://eips.ethereum.org/EIPS/eip-6093[ERC-6093] custom errors for ERC-1155 tokens.\n */\ninterface IERC1155Errors {\n    /**\n     * @dev Indicates an error related to the current `balance` of a `sender`. Used in transfers.\n     * @param sender Address whose tokens are being transferred.\n     * @param balance Current balance for the interacting account.\n     * @param needed Minimum amount required to perform a transfer.\n     * @param tokenId Identifier number of a token.\n     */\n    error ERC1155InsufficientBalance(address sender, uint256 balance, uint256 needed, uint256 tokenId);\n\n    /**\n     * @dev Indicates a failure with the token `sender`. Used in transfers.\n     * @param sender Address whose tokens are being transferred.\n     */\n    error ERC1155InvalidSender(address sender);\n\n    /**\n     * @dev Indicates a failure with the token `receiver`. Used in transfers.\n     * @param receiver Address to which tokens are being transferred.\n     */\n    error ERC1155InvalidReceiver(address receiver);\n\n    /**\n     * @dev Indicates a failure with the `operator`s approval. Used in transfers.\n     * @param operator Address that may be allowed to operate on tokens without being their owner.\n     * @param owner Address of the current owner of a token.\n     */\n    error ERC1155MissingApprovalForAll(address operator, address owner);\n\n    /**\n     * @dev Indicates a failure with the `approver` of a token to be approved. Used in approvals.\n     * @param approver Address initiating an approval operation.\n     */\n    error ERC1155InvalidApprover(address approver);\n\n    /**\n     * @dev Indicates a failure with the `operator` to be approved. Used in approvals.\n     * @param operator Address that may be allowed to operate on tokens without being their owner.\n     */\n    error ERC1155InvalidOperator(address operator);\n\n    /**\n     * @dev Indicates an array length mismatch between ids and values in a safeBatchTransferFrom operation.\n     * Used in batch transfers.\n     * @param idsLength Length of the array of token identifiers\n     * @param valuesLength Length of the array of token amounts\n     */\n    error ERC1155InvalidArrayLength(uint256 idsLength, uint256 valuesLength);\n}\n\n// lib/openzeppelin-contracts/contracts/token/ERC20/extensions/IERC20Metadata.sol\n\n// OpenZeppelin Contracts (last updated v5.1.0) (token/ERC20/extensions/IERC20Metadata.sol)\n\n/**\n * @dev Interface for the optional metadata functions from the ERC-20 standard.\n */\ninterface IERC20Metadata is IERC20 {\n    /**\n     * @dev Returns the name of the token.\n     */\n    function name() external view returns (string memory);\n\n    /**\n     * @dev Returns the symbol of the token.\n     */\n    function symbol() external view returns (string memory);\n\n    /**\n     * @dev Returns the decimals places of the token.\n     */\n    function decimals() external view returns (uint8);\n}\n\n// lib/openzeppelin-contracts/contracts/access/Ownable.sol\n\n// OpenZeppelin Contracts (last updated v5.0.0) (access/Ownable.sol)\n\n/**\n * @dev Contract module which provides a basic access control mechanism, where\n * there is an account (an owner) that can be granted exclusive access to\n * specific functions.\n *\n * The initial owner is set to the address provided by the deployer. This can\n * later be changed with {transferOwnership}.\n *\n * This module is used through inheritance. It will make available the modifier\n * `onlyOwner`, which can be applied to your functions to restrict their use to\n * the owner.\n */\nabstract contract Ownable is Context {\n    address private _owner;\n\n    /**\n     * @dev The caller account is not authorized to perform an operation.\n     */\n    error OwnableUnauthorizedAccount(address account);\n\n    /**\n     * @dev The owner is not a valid owner account. (eg. `address(0)`)\n     */\n    error OwnableInvalidOwner(address owner);\n\n    event OwnershipTransferred(address indexed previousOwner, address indexed newOwner);\n\n    /**\n     * @dev Initializes the contract setting the address provided by the deployer as the initial owner.\n     */\n    constructor(address initialOwner) {\n        if (initialOwner == address(0)) {\n            revert OwnableInvalidOwner(address(0));\n        }\n        _transferOwnership(initialOwner);\n    }\n\n    /**\n     * @dev Throws if called by any account other than the owner.\n     */\n    modifier onlyOwner() {\n        _checkOwner();\n        _;\n    }\n\n    /**\n     * @dev Returns the address of the current owner.\n     */\n    function owner() public view virtual returns (address) {\n        return _owner;\n    }\n\n    /**\n     * @dev Throws if the sender is not the owner.\n     */\n    function _checkOwner() internal view virtual {\n        if (owner() != _msgSender()) {\n            revert OwnableUnauthorizedAccount(_msgSender());\n        }\n    }\n\n    /**\n     * @dev Leaves the contract without owner. It will not be possible to call\n     * `onlyOwner` functions. Can only be called by the current owner.\n     *\n     * NOTE: Renouncing ownership will leave the contract without an owner,\n     * thereby disabling any functionality that is only available to the owner.\n     */\n    function renounceOwnership() public virtual onlyOwner {\n        _transferOwnership(address(0));\n    }\n\n    /**\n     * @dev Transfers ownership of the contract to a new account (`newOwner`).\n     * Can only be called by the current owner.\n     */\n    function transferOwnership(address newOwner) public virtual onlyOwner {\n        if (newOwner == address(0)) {\n            revert OwnableInvalidOwner(address(0));\n        }\n        _transferOwnership(newOwner);\n    }\n\n    /**\n     * @dev Transfers ownership of the contract to a new account (`newOwner`).\n     * Internal function without access restriction.\n     */\n    function _transferOwnership(address newOwner) internal virtual {\n        address oldOwner = _owner;\n        _owner = newOwner;\n        emit OwnershipTransferred(oldOwner, newOwner);\n    }\n}\n\n// lib/openzeppelin-contracts/contracts/token/ERC20/ERC20.sol\n\n// OpenZeppelin Contracts (last updated v5.3.0) (token/ERC20/ERC20.sol)\n\n/**\n * @dev Implementation of the {IERC20} interface.\n *\n * This implementation is agnostic to the way tokens are created. This means\n * that a supply mechanism has to be added in a derived contract using {_mint}.\n *\n * TIP: For a detailed writeup see our guide\n * https://forum.openzeppelin.com/t/how-to-implement-erc20-supply-mechanisms/226[How\n * to implement supply mechanisms].\n *\n * The default value of {decimals} is 18. To change this, you should override\n * this function so it returns a different value.\n *\n * We have followed general OpenZeppelin Contracts guidelines: functions revert\n * instead returning `false` on failure. This behavior is nonetheless\n * conventional and does not conflict with the expectations of ERC-20\n * applications.\n */\nabstract contract ERC20 is Context, IERC20, IERC20Metadata, IERC20Errors {\n    mapping(address => uint256) private _balances;\n\n    mapping(address => mapping(address => uint256)) private _allowances;\n\n    uint256 private _totalSupply;\n\n    string private _name;\n    string private _symbol;\n\n    /**\n     * @dev Sets the values for {name} and {symbol}.\n     *\n     * Both values are immutable: they can only be set once during construction.\n     */\n    constructor(string memory name_, string memory symbol_) {\n        _name = name_;\n        _symbol = symbol_;\n    }\n\n    /**\n     * @dev Returns the name of the token.\n     */\n    function name() public view virtual override returns (string memory) {\n        return _name;\n    }\n\n    /**\n     * @dev Returns the symbol of the token, usually a shorter version of the\n     * name.\n     */\n    function symbol() public view virtual override returns (string memory) {\n        return _symbol;\n    }\n\n    /**\n     * @dev Returns the number of decimals used to get its user representation.\n     * For example, if `decimals` equals `2`, a balance of `505` tokens should\n     * be displayed to a user as `5.05` (`505 / 10 ** 2`).\n     *\n     * Tokens usually opt for a value of 18, imitating the relationship between\n     * Ether and Wei. This is the default value returned by this function, unless\n     * it's overridden.\n     *\n     * NOTE: This information is only used for _display_ purposes: it in\n     * no way affects any of the arithmetic of the contract, including\n     * {IERC20-balanceOf} and {IERC20-transfer}.\n     */\n    function decimals() public view virtual override returns (uint8) {\n        return 18;\n    }\n\n    /**\n     * @dev See {IERC20-totalSupply}.\n     */\n    function totalSupply() public view virtual override returns (uint256) {\n        return _totalSupply;\n    }\n\n    /**\n     * @dev See {IERC20-balanceOf}.\n     */\n    function balanceOf(address account) public view virtual override returns (uint256) {\n        return _balances[account];\n    }\n\n    /**\n     * @dev See {IERC20-transfer}.\n     *\n     * Requirements:\n     *\n     * - `to` cannot be the zero address.\n     * - the caller must have a balance of at least `value`.\n     */\n    function transfer(address to, uint256 value) public virtual override returns (bool) {\n        address owner = _msgSender();\n        _transfer(owner, to, value);\n        return true;\n    }\n\n    /**\n     * @dev See {IERC20-allowance}.\n     */\n    function allowance(address owner, address spender) public view virtual override returns (uint256) {\n        return _allowances[owner][spender];\n    }\n\n    /**\n     * @dev See {IERC20-approve}.\n     *\n     * NOTE: If `value` is the maximum `uint256`, the allowance is not updated on\n     * `transferFrom`. This is semantically equivalent to an infinite approval.\n     *\n     * Requirements:\n     *\n     * - `spender` cannot be the zero address.\n     */\n    function approve(address spender, uint256 value) public virtual override returns (bool) {\n        address owner = _msgSender();\n        _approve(owner, spender, value);\n        return true;\n    }\n\n    /**\n     * @dev See {IERC20-transferFrom}.\n     *\n     * Skips emitting an {Approval} event indicating an allowance update. This is not\n     * required by the ERC. See {xref-ERC20-_approve-address-address-uint256-bool-}[_approve].\n     *\n     * NOTE: Does not update the allowance if the current allowance\n     * is the maximum `uint256`.\n     *\n     * Requirements:\n     *\n     * - `from` and `to` cannot be the zero address.\n     * - `from` must have a balance of at least `value`.\n     * - the caller must have allowance for ``from``'s tokens of at least\n     * `value`.\n     */\n    function transferFrom(address from, address to, uint256 value) public virtual override returns (bool) {\n        address spender = _msgSender();\n        _spendAllowance(from, spender, value);\n        _transfer(from, to, value);\n        return true;\n    }\n\n    /**\n     * @dev Moves a `value` amount of tokens from `from` to `to`.\n     *\n     * This internal function is equivalent to {transfer}, and can be used to\n     * e.g. implement automatic token fees, slashing mechanisms, etc.\n     *\n     * Emits a {Transfer} event.\n     *\n     * NOTE: This function is not virtual, {_update} should be overridden instead.\n     */\n    function _transfer(address from, address to, uint256 value) internal {\n        if (from == address(0)) {\n            revert ERC20InvalidSender(address(0));\n        }\n        if (to == address(0)) {\n            revert ERC20InvalidReceiver(address(0));\n        }\n        _update(from, to, value);\n    }\n\n    /**\n     * @dev Transfers a `value` amount of tokens from `from` to `to`, or alternatively mints (or burns) if `from`\n     * (or `to`) is the zero address. All customizations to transfers, mints, and burns should be done by overriding\n     * this function.\n     *\n     * Emits a {Transfer} event.\n     */\n    function _update(address from, address to, uint256 value) internal virtual {\n        if (from == address(0)) {\n            // Overflow check required: The rest of the code assumes that totalSupply never overflows\n            _totalSupply += value;\n        } else {\n            uint256 fromBalance = _balances[from];\n            if (fromBalance < value) {\n                revert ERC20InsufficientBalance(from, fromBalance, value);\n            }\n            unchecked {\n                // Overflow not possible: value <= fromBalance <= totalSupply.\n                _balances[from] = fromBalance - value;\n            }\n        }\n\n        if (to == address(0)) {\n            unchecked {\n                // Overflow not possible: value <= totalSupply or value <= fromBalance <= totalSupply.\n                _totalSupply -= value;\n            }\n        } else {\n            unchecked {\n                // Overflow not possible: balance + value is at most totalSupply, which we know fits into a uint256.\n                _balances[to] += value;\n            }\n        }\n\n        emit Transfer(from, to, value);\n    }\n\n    /**\n     * @dev Creates a `value` amount of tokens and assigns them to `account`, by transferring it from address(0).\n     * Relies on the `_update` mechanism\n     *\n     * Emits a {Transfer} event with `from` set to the zero address.\n     *\n     * NOTE: This function is not virtual, {_update} should be overridden instead.\n     */\n    function _mint(address account, uint256 value) internal {\n        if (account == address(0)) {\n            revert ERC20InvalidReceiver(address(0));\n        }\n        _update(address(0), account, value);\n    }\n\n    /**\n     * @dev Destroys a `value` amount of tokens from `account`, lowering the total supply.\n     * Relies on the `_update` mechanism.\n     *\n     * Emits a {Transfer} event with `to` set to the zero address.\n     *\n     * NOTE: This function is not virtual, {_update} should be overridden instead\n     */\n    function _burn(address account, uint256 value) internal {\n        if (account == address(0)) {\n            revert ERC20InvalidSender(address(0));\n        }\n        _update(account, address(0), value);\n    }\n\n    /**\n     * @dev Sets `value` as the allowance of `spender` over the `owner`'s tokens.\n     *\n     * This internal function is equivalent to `approve`, and can be used to\n     * e.g. set automatic allowances for certain subsystems, etc.\n     *\n     * Emits an {Approval} event.\n     *\n     * Requirements:\n     *\n     * - `owner` cannot be the zero address.\n     * - `spender` cannot be the zero address.\n     *\n     * Overrides to this logic should be done to the variant with an additional `bool emitEvent` argument.\n     */\n    function _approve(address owner, address spender, uint256 value) internal {\n        _approve(owner, spender, value, true);\n    }\n\n    /**\n     * @dev Variant of {_approve} with an optional flag to enable or disable the {Approval} event.\n     *\n     * By default (when calling {_approve}) the flag is set to true. On the other hand, approval changes made by\n     * `_spendAllowance` during the `transferFrom` operation set the flag to false. This saves gas by not emitting any\n     * `Approval` event during `transferFrom` operations.\n     *\n     * Anyone who wishes to continue emitting `Approval` events on the`transferFrom` operation can force the flag to\n     * true using the following override:\n     *\n     * ```solidity\n     * function _approve(address owner, address spender, uint256 value, bool) internal virtual override {\n     *     super._approve(owner, spender, value, true);\n     * }\n     * ```\n     *\n     * Requirements are the same as {_approve}.\n     */\n    function _approve(address owner, address spender, uint256 value, bool emitEvent) internal virtual {\n        if (owner == address(0)) {\n            revert ERC20InvalidApprover(address(0));\n        }\n        if (spender == address(0)) {\n            revert ERC20InvalidSpender(address(0));\n        }\n        _allowances[owner][spender] = value;\n        if (emitEvent) {\n            emit Approval(owner, spender, value);\n        }\n    }\n\n    /**\n     * @dev Updates `owner`'s allowance for `spender` based on spent `value`.\n     *\n     * Does not update the allowance value in case of infinite allowance.\n     * Revert if not enough allowance is available.\n     *\n     * Does not emit an {Approval} event.\n     */\n    function _spendAllowance(address owner, address spender, uint256 value) internal virtual {\n        uint256 currentAllowance = allowance(owner, spender);\n        if (currentAllowance < type(uint256).max) {\n            if (currentAllowance < value) {\n                revert ERC20InsufficientAllowance(spender, currentAllowance, value);\n            }\n            unchecked {\n                _approve(owner, spender, currentAllowance - value, false);\n            }\n        }\n    }\n}\n\n// src/Africoin.sol\n\ncontract Africoin is ERC20, Ownable {\n    mapping(address => bool) private _admins;\n\n    event AdminAdded(address indexed admin);\n    event AdminRemoved(address indexed admin);\n\n    constructor(uint256 initialSupply) Ownable(msg.sender) ERC20(\"Africoin\", \"AFC\") {\n        _mint(msg.sender, initialSupply);\n    }\n\n    modifier onlyAdmin() {\n        require(_admins[msg.sender], \"Africoin: caller is not an admin\");\n        _;\n    }\n\n    function addAdmin(address admin) public onlyOwner {\n        require(admin != address(0), \"Africoin: admin is the zero address\");\n        require(!_admins[admin], \"Africoin: already an admin\");\n        _admins[admin] = true;\n        emit AdminAdded(admin);\n    }\n\n    function removeAdmin(address admin) public onlyOwner {\n        require(_admins[admin], \"Africoin: not an admin\");\n        _admins[admin] = false;\n        emit AdminRemoved(admin);\n    }\n\n    function isAdmin(address admin) public view returns (bool) {\n        return _admins[admin];\n    }\n\n    function mint(address to, uint256 amount) public onlyAdmin {\n        _mint(to, amount);\n    }\n}\n\n",
  "sourcePath": "/Users/macbook/Desktop/Afrione /AFRICOIN/africoin-smart-contract/tron-smart-contract/contracts/AfriCoin.sol",
  "compiler": {
    "name": "solc",
    "version": "0.8.6+commit.0e36fba0.mod.Emscripten.clang"
  },
  "schemaVersion": "2.0.1",
  "updatedAt": "2025-07-16T01:47:47.227Z"
}