{
  "contractName": "AFRi",
  "abi": [
    {
      "inputs": [
        {
          "internalType": "address",
          "name": "owner",
          "type": "address"
        }
      ],
      "stateMutability": "nonpayable",
      "type": "constructor"
    },
    {
      "inputs": [
        {
          "internalType": "address",
          "name": "spender",
          "type": "address"
        },
        {
          "internalType": "uint256",
          "name": "allowance",
          "type": "uint256"
        },
        {
          "internalType": "uint256",
          "name": "needed",
          "type": "uint256"
        }
      ],
      "name": "ERC20InsufficientAllowance",
      "type": "error"
    },
    {
      "inputs": [
        {
          "internalType": "address",
          "name": "sender",
          "type": "address"
        },
        {
          "internalType": "uint256",
          "name": "balance",
          "type": "uint256"
        },
        {
          "internalType": "uint256",
          "name": "needed",
          "type": "uint256"
        }
      ],
      "name": "ERC20InsufficientBalance",
      "type": "error"
    },
    {
      "inputs": [
        {
          "internalType": "address",
          "name": "approver",
          "type": "address"
        }
      ],
      "name": "ERC20InvalidApprover",
      "type": "error"
    },
    {
      "inputs": [
        {
          "internalType": "address",
          "name": "receiver",
          "type": "address"
        }
      ],
      "name": "ERC20InvalidReceiver",
      "type": "error"
    },
    {
      "inputs": [
        {
          "internalType": "address",
          "name": "sender",
          "type": "address"
        }
      ],
      "name": "ERC20InvalidSender",
      "type": "error"
    },
    {
      "inputs": [
        {
          "internalType": "address",
          "name": "spender",
          "type": "address"
        }
      ],
      "name": "ERC20InvalidSpender",
      "type": "error"
    },
    {
      "inputs": [
        {
          "internalType": "address",
          "name": "owner",
          "type": "address"
        }
      ],
      "name": "OwnableInvalidOwner",
      "type": "error"
    },
    {
      "inputs": [
        {
          "internalType": "address",
          "name": "account",
          "type": "address"
        }
      ],
      "name": "OwnableUnauthorizedAccount",
      "type": "error"
    },
    {
      "anonymous": false,
      "inputs": [
        {
          "indexed": true,
          "internalType": "address",
          "name": "admin",
          "type": "address"
        }
      ],
      "name": "AdminAdded",
      "type": "event"
    },
    {
      "anonymous": false,
      "inputs": [
        {
          "indexed": true,
          "internalType": "address",
          "name": "admin",
          "type": "address"
        }
      ],
      "name": "AdminRemoved",
      "type": "event"
    },
    {
      "anonymous": false,
      "inputs": [
        {
          "indexed": true,
          "internalType": "address",
          "name": "owner",
          "type": "address"
        },
        {
          "indexed": true,
          "internalType": "address",
          "name": "spender",
          "type": "address"
        },
        {
          "indexed": false,
          "internalType": "uint256",
          "name": "value",
          "type": "uint256"
        }
      ],
      "name": "Approval",
      "type": "event"
    },
    {
      "anonymous": false,
      "inputs": [
        {
          "indexed": true,
          "internalType": "address",
          "name": "previousOwner",
          "type": "address"
        },
        {
          "indexed": true,
          "internalType": "address",
          "name": "newOwner",
          "type": "address"
        }
      ],
      "name": "OwnershipTransferStarted",
      "type": "event"
    },
    {
      "anonymous": false,
      "inputs": [
        {
          "indexed": true,
          "internalType": "address",
          "name": "previousOwner",
          "type": "address"
        },
        {
          "indexed": true,
          "internalType": "address",
          "name": "newOwner",
          "type": "address"
        }
      ],
      "name": "OwnershipTransferred",
      "type": "event"
    },
    {
      "anonymous": false,
      "inputs": [
        {
          "indexed": true,
          "internalType": "address",
          "name": "from",
          "type": "address"
        },
        {
          "indexed": true,
          "internalType": "address",
          "name": "to",
          "type": "address"
        },
        {
          "indexed": false,
          "internalType": "uint256",
          "name": "value",
          "type": "uint256"
        }
      ],
      "name": "Transfer",
      "type": "event"
    },
    {
      "inputs": [],
      "name": "acceptOwnership",
      "outputs": [],
      "stateMutability": "nonpayable",
      "type": "function"
    },
    {
      "inputs": [
        {
          "internalType": "address",
          "name": "admin",
          "type": "address"
        }
      ],
      "name": "addAdmin",
      "outputs": [],
      "stateMutability": "nonpayable",
      "type": "function"
    },
    {
      "inputs": [
        {
          "internalType": "address",
          "name": "owner",
          "type": "address"
        },
        {
          "internalType": "address",
          "name": "spender",
          "type": "address"
        }
      ],
      "name": "allowance",
      "outputs": [
        {
          "internalType": "uint256",
          "name": "",
          "type": "uint256"
        }
      ],
      "stateMutability": "view",
      "type": "function"
    },
    {
      "inputs": [
        {
          "internalType": "address",
          "name": "spender",
          "type": "address"
        },
        {
          "internalType": "uint256",
          "name": "value",
          "type": "uint256"
        }
      ],
      "name": "approve",
      "outputs": [
        {
          "internalType": "bool",
          "name": "",
          "type": "bool"
        }
      ],
      "stateMutability": "nonpayable",
      "type": "function"
    },
    {
      "inputs": [
        {
          "internalType": "address",
          "name": "account",
          "type": "address"
        }
      ],
      "name": "balanceOf",
      "outputs": [
        {
          "internalType": "uint256",
          "name": "",
          "type": "uint256"
        }
      ],
      "stateMutability": "view",
      "type": "function"
    },
    {
      "inputs": [],
      "name": "decimals",
      "outputs": [
        {
          "internalType": "uint8",
          "name": "",
          "type": "uint8"
        }
      ],
      "stateMutability": "view",
      "type": "function"
    },
    {
      "inputs": [
        {
          "internalType": "address",
          "name": "admin",
          "type": "address"
        }
      ],
      "name": "isAdmin",
      "outputs": [
        {
          "internalType": "bool",
          "name": "",
          "type": "bool"
        }
      ],
      "stateMutability": "view",
      "type": "function"
    },
    {
      "inputs": [
        {
          "internalType": "address",
          "name": "to",
          "type": "address"
        },
        {
          "internalType": "uint256",
          "name": "amount",
          "type": "uint256"
        }
      ],
      "name": "mint",
      "outputs": [],
      "stateMutability": "nonpayable",
      "type": "function"
    },
    {
      "inputs": [],
      "name": "name",
      "outputs": [
        {
          "internalType": "string",
          "name": "",
          "type": "string"
        }
      ],
      "stateMutability": "view",
      "type": "function"
    },
    {
      "inputs": [],
      "name": "owner",
      "outputs": [
        {
          "internalType": "address",
          "name": "",
          "type": "address"
        }
      ],
      "stateMutability": "view",
      "type": "function"
    },
    {
      "inputs": [],
      "name": "pendingOwner",
      "outputs": [
        {
          "internalType": "address",
          "name": "",
          "type": "address"
        }
      ],
      "stateMutability": "view",
      "type": "function"
    },
    {
      "inputs": [
        {
          "internalType": "address",
          "name": "admin",
          "type": "address"
        }
      ],
      "name": "removeAdmin",
      "outputs": [],
      "stateMutability": "nonpayable",
      "type": "function"
    },
    {
      "inputs": [],
      "name": "renounceOwnership",
      "outputs": [],
      "stateMutability": "nonpayable",
      "type": "function"
    },
    {
      "inputs": [],
      "name": "symbol",
      "outputs": [
        {
          "internalType": "string",
          "name": "",
          "type": "string"
        }
      ],
      "stateMutability": "view",
      "type": "function"
    },
    {
      "inputs": [],
      "name": "totalSupply",
      "outputs": [
        {
          "internalType": "uint256",
          "name": "",
          "type": "uint256"
        }
      ],
      "stateMutability": "view",
      "type": "function"
    },
    {
      "inputs": [
        {
          "internalType": "address",
          "name": "to",
          "type": "address"
        },
        {
          "internalType": "uint256",
          "name": "value",
          "type": "uint256"
        }
      ],
      "name": "transfer",
      "outputs": [
        {
          "internalType": "bool",
          "name": "",
          "type": "bool"
        }
      ],
      "stateMutability": "nonpayable",
      "type": "function"
    },
    {
      "inputs": [
        {
          "internalType": "address",
          "name": "from",
          "type": "address"
        },
        {
          "internalType": "address",
          "name": "to",
          "type": "address"
        },
        {
          "internalType": "uint256",
          "name": "value",
          "type": "uint256"
        }
      ],
      "name": "transferFrom",
      "outputs": [
        {
          "internalType": "bool",
          "name": "",
          "type": "bool"
        }
      ],
      "stateMutability": "nonpayable",
      "type": "function"
    },
    {
      "inputs": [
        {
          "internalType": "address",
          "name": "newOwner",
          "type": "address"
        }
      ],
      "name": "transferOwnership",
      "outputs": [],
      "stateMutability": "nonpayable",
      "type": "function"
    }
  ],
  "bytecode": "0x60806040523480156200001157600080fd5b50d380156200001f57600080fd5b50d280156200002d57600080fd5b5060405162001f0738038062001f0783398181016040528101906200005391906200035b565b806040518060400160405280600881526020017f41667269636f696e0000000000000000000000000000000000000000000000008152506040518060400160405280600381526020017f41464300000000000000000000000000000000000000000000000000000000008152508160039080519060200190620000d892919062000287565b508060049080519060200190620000f192919062000287565b505050600073ffffffffffffffffffffffffffffffffffffffff168173ffffffffffffffffffffffffffffffffffffffff1614156200016a5760006040517f1e4fbdf70000000000000000000000000000000000000000000000000000000081526004016200016191906200039e565b60405180910390fd5b6200017b816200018360201b60201c565b505062000494565b600660006101000a81549073ffffffffffffffffffffffffffffffffffffffff0219169055620001be81620001c160201b62000be71760201c565b50565b6000600560009054906101000a900473ffffffffffffffffffffffffffffffffffffffff16905081600560006101000a81548173ffffffffffffffffffffffffffffffffffffffff021916908373ffffffffffffffffffffffffffffffffffffffff1602179055508173ffffffffffffffffffffffffffffffffffffffff168173ffffffffffffffffffffffffffffffffffffffff167f8be0079c531659141344cd1fd0a4f28419497f9722a3daafe3b4186f6b6457e060405160405180910390a35050565b828054620002959062000410565b90600052602060002090601f016020900481019282620002b9576000855562000305565b82601f10620002d457805160ff191683800117855562000305565b8280016001018555821562000305579182015b8281111562000304578251825591602001919060010190620002e7565b5b50905062000314919062000318565b5090565b5b808211156200033357600081600090555060010162000319565b5090565b60008151905062000348816200047a565b6200035381620003bb565b905092915050565b60006020828403121562000374576200037362000475565b5b6000620003848482850162000337565b91505092915050565b6200039881620003bb565b82525050565b6000602082019050620003b560008301846200038d565b92915050565b6000620003c882620003cf565b9050919050565b600073ffffffffffffffffffffffffffffffffffffffff82169050919050565b600074ffffffffffffffffffffffffffffffffffffffffff82169050919050565b600060028204905060018216806200042957607f821691505b6020821081141562000440576200043f62000446565b5b50919050565b7f4e487b7100000000000000000000000000000000000000000000000000000000600052602260045260246000fd5b600080fd5b6200048581620003ef565b81146200049157600080fd5b50565b611a6380620004a46000396000f3fe608060405234801561001057600080fd5b50d3801561001d57600080fd5b50d2801561002a57600080fd5b50600436106101305760003560e01c806370a08231116100bc57806395d89b411161008b57806395d89b41146102d5578063a9059cbb146102f3578063dd62ed3e14610323578063e30c397814610353578063f2fde38b1461037157610130565b806370a0823114610273578063715018a6146102a357806379ba5097146102ad5780638da5cb5b146102b757610130565b806323b872dd1161010357806323b872dd146101bd57806324d7806c146101ed578063313ce5671461021d57806340c10f191461023b578063704802751461025757610130565b806306fdde0314610135578063095ea7b3146101535780631785f53c1461018357806318160ddd1461019f575b600080fd5b61013d61038d565b60405161014a9190611653565b60405180910390f35b61016d60048036038101906101689190611482565b61041f565b60405161017a9190611638565b60405180910390f35b61019d600480360381019061019891906113c2565b610442565b005b6101a7610574565b6040516101b49190611715565b60405180910390f35b6101d760048036038101906101d2919061142f565b61057e565b6040516101e49190611638565b60405180910390f35b610207600480360381019061020291906113c2565b6105ad565b6040516102149190611638565b60405180910390f35b610225610603565b6040516102329190611730565b60405180910390f35b61025560048036038101906102509190611482565b61060c565b005b610271600480360381019061026c91906113c2565b6106a6565b005b61028d600480360381019061028891906113c2565b6108bf565b60405161029a9190611715565b60405180910390f35b6102ab610907565b005b6102b561091b565b005b6102bf6109aa565b6040516102cc91906115e6565b60405180910390f35b6102dd6109d4565b6040516102ea9190611653565b60405180910390f35b61030d60048036038101906103089190611482565b610a66565b60405161031a9190611638565b60405180910390f35b61033d600480360381019061033891906113ef565b610a89565b60405161034a9190611715565b60405180910390f35b61035b610b10565b60405161036891906115e6565b60405180910390f35b61038b600480360381019061038691906113c2565b610b3a565b005b60606003805461039c90611866565b80601f01602080910402602001604051908101604052809291908181526020018280546103c890611866565b80156104155780601f106103ea57610100808354040283529160200191610415565b820191906000526020600020905b8154815290600101906020018083116103f857829003601f168201915b5050505050905090565b60008061042a610cad565b9050610437818585610cb5565b600191505092915050565b61044a610cc7565b600760008273ffffffffffffffffffffffffffffffffffffffff1673ffffffffffffffffffffffffffffffffffffffff16815260200190815260200160002060009054906101000a900460ff166104d6576040517f08c379a00000000000000000000000000000000000000000000000000000000081526004016104cd906116f5565b60405180910390fd5b6000600760008373ffffffffffffffffffffffffffffffffffffffff1673ffffffffffffffffffffffffffffffffffffffff16815260200190815260200160002060006101000a81548160ff0219169083151502179055508073ffffffffffffffffffffffffffffffffffffffff167fa3b62bc36326052d97ea62d63c3d60308ed4c3ea8ac079dd8499f1e9c4f80c0f60405160405180910390a250565b6000600254905090565b600080610589610cad565b9050610596858285610d4e565b6105a1858585610de3565b60019150509392505050565b6000600760008373ffffffffffffffffffffffffffffffffffffffff1673ffffffffffffffffffffffffffffffffffffffff16815260200190815260200160002060009054906101000a900460ff169050919050565b60006012905090565b600760003373ffffffffffffffffffffffffffffffffffffffff1673ffffffffffffffffffffffffffffffffffffffff16815260200190815260200160002060009054906101000a900460ff16610698576040517f08c379a000000000000000000000000000000000000000000000000000000000815260040161068f90611695565b60405180910390fd5b6106a28282610ed9565b5050565b6106ae610cc7565b600073ffffffffffffffffffffffffffffffffffffffff168173ffffffffffffffffffffffffffffffffffffffff16141561071e576040517f08c379a0000000000000000000000000000000000000000000000000000000008152600401610715906116b5565b60405180910390fd5b6107266109aa565b73ffffffffffffffffffffffffffffffffffffffff168173ffffffffffffffffffffffffffffffffffffffff161415610794576040517f08c379a000000000000000000000000000000000000000000000000000000000815260040161078b90611675565b60405180910390fd5b600760008273ffffffffffffffffffffffffffffffffffffffff1673ffffffffffffffffffffffffffffffffffffffff16815260200190815260200160002060009054906101000a900460ff1615610821576040517f08c379a0000000000000000000000000000000000000000000000000000000008152600401610818906116d5565b60405180910390fd5b6001600760008373ffffffffffffffffffffffffffffffffffffffff1673ffffffffffffffffffffffffffffffffffffffff16815260200190815260200160002060006101000a81548160ff0219169083151502179055508073ffffffffffffffffffffffffffffffffffffffff167f44d6d25963f097ad14f29f06854a01f575648a1ef82f30e562ccd3889717e33960405160405180910390a250565b60008060008373ffffffffffffffffffffffffffffffffffffffff1673ffffffffffffffffffffffffffffffffffffffff168152602001908152602001600020549050919050565b61090f610cc7565b6109196000610f5c565b565b6000610925610cad565b90508073ffffffffffffffffffffffffffffffffffffffff16610946610b10565b73ffffffffffffffffffffffffffffffffffffffff161461099e57806040517f118cdaa700000000000000000000000000000000000000000000000000000000815260040161099591906115e6565b60405180910390fd5b6109a781610f5c565b50565b6000600560009054906101000a900473ffffffffffffffffffffffffffffffffffffffff16905090565b6060600480546109e390611866565b80601f0160208091040260200160405190810160405280929190818152602001828054610a0f90611866565b8015610a5c5780601f10610a3157610100808354040283529160200191610a5c565b820191906000526020600020905b815481529060010190602001808311610a3f57829003601f168201915b5050505050905090565b600080610a71610cad565b9050610a7e818585610de3565b600191505092915050565b6000600160008473ffffffffffffffffffffffffffffffffffffffff1673ffffffffffffffffffffffffffffffffffffffff16815260200190815260200160002060008373ffffffffffffffffffffffffffffffffffffffff1673ffffffffffffffffffffffffffffffffffffffff16815260200190815260200160002054905092915050565b6000600660009054906101000a900473ffffffffffffffffffffffffffffffffffffffff16905090565b610b42610cc7565b80600660006101000a81548173ffffffffffffffffffffffffffffffffffffffff021916908373ffffffffffffffffffffffffffffffffffffffff1602179055508073ffffffffffffffffffffffffffffffffffffffff16610ba26109aa565b73ffffffffffffffffffffffffffffffffffffffff167f38d16b8cac22d99fc7c124b9cd0de2d3fa1faef420bfe791d8c362d765e2270060405160405180910390a350565b6000600560009054906101000a900473ffffffffffffffffffffffffffffffffffffffff16905081600560006101000a81548173ffffffffffffffffffffffffffffffffffffffff021916908373ffffffffffffffffffffffffffffffffffffffff1602179055508173ffffffffffffffffffffffffffffffffffffffff168173ffffffffffffffffffffffffffffffffffffffff167f8be0079c531659141344cd1fd0a4f28419497f9722a3daafe3b4186f6b6457e060405160405180910390a35050565b600033905090565b610cc28383836001610f8d565b505050565b610ccf610cad565b73ffffffffffffffffffffffffffffffffffffffff16610ced6109aa565b73ffffffffffffffffffffffffffffffffffffffff1614610d4c57610d10610cad565b6040517f118cdaa7000000000000000000000000000000000000000000000000000000008152600401610d4391906115e6565b60405180910390fd5b565b6000610d5a8484610a89565b90507fffffffffffffffffffffffffffffffffffffffffffffffffffffffffffffffff811015610ddd5781811015610dcd578281836040517ffb8f41b2000000000000000000000000000000000000000000000000000000008152600401610dc493929190611601565b60405180910390fd5b610ddc84848484036000610f8d565b5b50505050565b600073ffffffffffffffffffffffffffffffffffffffff168373ffffffffffffffffffffffffffffffffffffffff161415610e565760006040517f96c6fd1e000000000000000000000000000000000000000000000000000000008152600401610e4d91906115e6565b60405180910390fd5b600073ffffffffffffffffffffffffffffffffffffffff168273ffffffffffffffffffffffffffffffffffffffff161415610ec95760006040517fec442f05000000000000000000000000000000000000000000000000000000008152600401610ec091906115e6565b60405180910390fd5b610ed4838383611166565b505050565b600073ffffffffffffffffffffffffffffffffffffffff168273ffffffffffffffffffffffffffffffffffffffff161415610f4c5760006040517fec442f05000000000000000000000000000000000000000000000000000000008152600401610f4391906115e6565b60405180910390fd5b610f5860008383611166565b5050565b600660006101000a81549073ffffffffffffffffffffffffffffffffffffffff0219169055610f8a81610be7565b50565b600073ffffffffffffffffffffffffffffffffffffffff168473ffffffffffffffffffffffffffffffffffffffff1614156110005760006040517fe602df05000000000000000000000000000000000000000000000000000000008152600401610ff791906115e6565b60405180910390fd5b600073ffffffffffffffffffffffffffffffffffffffff168373ffffffffffffffffffffffffffffffffffffffff1614156110735760006040517f94280d6200000000000000000000000000000000000000000000000000000000815260040161106a91906115e6565b60405180910390fd5b81600160008673ffffffffffffffffffffffffffffffffffffffff1673ffffffffffffffffffffffffffffffffffffffff16815260200190815260200160002060008573ffffffffffffffffffffffffffffffffffffffff1673ffffffffffffffffffffffffffffffffffffffff168152602001908152602001600020819055508015611160578273ffffffffffffffffffffffffffffffffffffffff168473ffffffffffffffffffffffffffffffffffffffff167f8c5be1e5ebec7d5bd14f71427d1e84f3dd0314c0f7b2291e5b200ac8c7c3b925846040516111579190611715565b60405180910390a35b50505050565b600073ffffffffffffffffffffffffffffffffffffffff168373ffffffffffffffffffffffffffffffffffffffff1614156111b95780600260008282546111ad9190611767565b9250508190555061128c565b60008060008573ffffffffffffffffffffffffffffffffffffffff1673ffffffffffffffffffffffffffffffffffffffff16815260200190815260200160002054905081811015611245578381836040517fe450d38c00000000000000000000000000000000000000000000000000000000815260040161123c93929190611601565b60405180910390fd5b8181036000808673ffffffffffffffffffffffffffffffffffffffff1673ffffffffffffffffffffffffffffffffffffffff16815260200190815260200160002081905550505b600073ffffffffffffffffffffffffffffffffffffffff168273ffffffffffffffffffffffffffffffffffffffff1614156112d65780600260008282540392505081905550611323565b806000808473ffffffffffffffffffffffffffffffffffffffff1673ffffffffffffffffffffffffffffffffffffffff168152602001908152602001600020600082825401925050819055505b8173ffffffffffffffffffffffffffffffffffffffff168373ffffffffffffffffffffffffffffffffffffffff167fddf252ad1be2c89b69c2b068fc378daa952ba7f163c4a11628f55a4df523b3ef836040516113809190611715565b60405180910390a3505050565b60008135905061139c816119ff565b6113a5816117bd565b905092915050565b6000813590506113bc81611a16565b92915050565b6000602082840312156113d8576113d76118f6565b5b60006113e68482850161138d565b91505092915050565b60008060408385031215611406576114056118f6565b5b60006114148582860161138d565b92505060206114258582860161138d565b9150509250929050565b600080600060608486031215611448576114476118f6565b5b60006114568682870161138d565b93505060206114678682870161138d565b9250506040611478868287016113ad565b9150509250925092565b60008060408385031215611499576114986118f6565b5b60006114a78582860161138d565b92505060206114b8858286016113ad565b9150509250929050565b6114cb816117bd565b82525050565b6114da816117cf565b82525050565b60006114eb8261174b565b6114f58185611756565b9350611505818560208601611833565b61150e816118fb565b840191505092915050565b6000611526601f83611756565b91506115318261190c565b602082019050919050565b6000611549602083611756565b915061155482611935565b602082019050919050565b600061156c602383611756565b91506115778261195e565b604082019050919050565b600061158f601a83611756565b915061159a826119ad565b602082019050919050565b60006115b2601683611756565b91506115bd826119d6565b602082019050919050565b6115d18161181c565b82525050565b6115e081611826565b82525050565b60006020820190506115fb60008301846114c2565b92915050565b600060608201905061161660008301866114c2565b61162360208301856115c8565b61163060408301846115c8565b949350505050565b600060208201905061164d60008301846114d1565b92915050565b6000602082019050818103600083015261166d81846114e0565b905092915050565b6000602082019050818103600083015261168e81611519565b9050919050565b600060208201905081810360008301526116ae8161153c565b9050919050565b600060208201905081810360008301526116ce8161155f565b9050919050565b600060208201905081810360008301526116ee81611582565b9050919050565b6000602082019050818103600083015261170e816115a5565b9050919050565b600060208201905061172a60008301846115c8565b92915050565b600060208201905061174560008301846115d7565b92915050565b600081519050919050565b600082825260208201905092915050565b60006117728261181c565b915061177d8361181c565b9250827fffffffffffffffffffffffffffffffffffffffffffffffffffffffffffffffff038211156117b2576117b1611898565b5b828201905092915050565b60006117c8826117db565b9050919050565b60008115159050919050565b600073ffffffffffffffffffffffffffffffffffffffff82169050919050565b600074ffffffffffffffffffffffffffffffffffffffffff82169050919050565b6000819050919050565b600060ff82169050919050565b60005b83811015611851578082015181840152602081019050611836565b83811115611860576000848401525b50505050565b6000600282049050600182168061187e57607f821691505b60208210811415611892576118916118c7565b5b50919050565b7f4e487b7100000000000000000000000000000000000000000000000000000000600052601160045260246000fd5b7f4e487b7100000000000000000000000000000000000000000000000000000000600052602260045260246000fd5b600080fd5b6000601f19601f8301169050919050565b7f41667269636f696e3a206f776e65722063616e6e6f742062652061646d696e00600082015250565b7f41667269636f696e3a2063616c6c6572206973206e6f7420616e2061646d696e600082015250565b7f41667269636f696e3a2061646d696e20697320746865207a65726f206164647260008201527f6573730000000000000000000000000000000000000000000000000000000000602082015250565b7f41667269636f696e3a20616c726561647920616e2061646d696e000000000000600082015250565b7f41667269636f696e3a206e6f7420616e2061646d696e00000000000000000000600082015250565b611a08816117fb565b8114611a1357600080fd5b50565b611a1f8161181c565b8114611a2a57600080fd5b5056fea26474726f6e5822122067217b97e66322d54c83ac7a24f7209c4841f6942060ae94adf633438e1f8daa64736f6c63430008060033",
  "source": "// SPDX-License-Identifier: MIT\npragma solidity ^0.8.6 ;\n\n// lib/openzeppelin-contracts/contracts/utils/Context.sol\n\n// OpenZeppelin Contracts (last updated v5.0.1) (utils/Context.sol)\n\n/**\n * @dev Provides information about the current execution context, including the\n * sender of the transaction and its data. While these are generally available\n * via msg.sender and msg.data, they should not be accessed in such a direct\n * manner, since when dealing with meta-transactions the account sending and\n * paying for execution may not be the actual sender (as far as an application\n * is concerned).\n *\n * This contract is only required for intermediate, library-like contracts.\n */\nabstract contract Context {\n    function _msgSender() internal view virtual returns (address) {\n        return msg.sender;\n    }\n\n    function _msgData() internal view virtual returns (bytes calldata) {\n        return msg.data;\n    }\n\n    function _contextSuffixLength() internal view virtual returns (uint256) {\n        return 0;\n    }\n}\n\n// lib/openzeppelin-contracts/contracts/token/ERC20/IERC20.sol\n\n// OpenZeppelin Contracts (last updated v5.1.0) (token/ERC20/IERC20.sol)\n\n/**\n * @dev Interface of the ERC-20 standard as defined in the ERC.\n */\ninterface IERC20 {\n    /**\n     * @dev Emitted when `value` tokens are moved from one account (`from`) to\n     * another (`to`).\n     *\n     * Note that `value` may be zero.\n     */\n    event Transfer(address indexed from, address indexed to, uint256 value);\n\n    /**\n     * @dev Emitted when the allowance of a `spender` for an `owner` is set by\n     * a call to {approve}. `value` is the new allowance.\n     */\n    event Approval(address indexed owner, address indexed spender, uint256 value);\n\n    /**\n     * @dev Returns the value of tokens in existence.\n     */\n    function totalSupply() external view returns (uint256);\n\n    /**\n     * @dev Returns the value of tokens owned by `account`.\n     */\n    function balanceOf(address account) external view returns (uint256);\n\n    /**\n     * @dev Moves a `value` amount of tokens from the caller's account to `to`.\n     *\n     * Returns a boolean value indicating whether the operation succeeded.\n     *\n     * Emits a {Transfer} event.\n     */\n    function transfer(address to, uint256 value) external returns (bool);\n\n    /**\n     * @dev Returns the remaining number of tokens that `spender` will be\n     * allowed to spend on behalf of `owner` through {transferFrom}. This is\n     * zero by default.\n     *\n     * This value changes when {approve} or {transferFrom} are called.\n     */\n    function allowance(address owner, address spender) external view returns (uint256);\n\n    /**\n     * @dev Sets a `value` amount of tokens as the allowance of `spender` over the\n     * caller's tokens.\n     *\n     * Returns a boolean value indicating whether the operation succeeded.\n     *\n     * IMPORTANT: Beware that changing an allowance with this method brings the risk\n     * that someone may use both the old and the new allowance by unfortunate\n     * transaction ordering. One possible solution to mitigate this race\n     * condition is to first reduce the spender's allowance to 0 and set the\n     * desired value afterwards:\n     * https://github.com/ethereum/EIPs/issues/20#issuecomment-263524729\n     *\n     * Emits an {Approval} event.\n     */\n    function approve(address spender, uint256 value) external returns (bool);\n\n    /**\n     * @dev Moves a `value` amount of tokens from `from` to `to` using the\n     * allowance mechanism. `value` is then deducted from the caller's\n     * allowance.\n     *\n     * Returns a boolean value indicating whether the operation succeeded.\n     *\n     * Emits a {Transfer} event.\n     */\n    function transferFrom(address from, address to, uint256 value) external returns (bool);\n}\n\n// lib/openzeppelin-contracts/contracts/interfaces/draft-IERC6093.sol\n\n// OpenZeppelin Contracts (last updated v5.1.0) (interfaces/draft-IERC6093.sol)\n\n/**\n * @dev Standard ERC-20 Errors\n * Interface of the https://eips.ethereum.org/EIPS/eip-6093[ERC-6093] custom errors for ERC-20 tokens.\n */\ninterface IERC20Errors {\n    /**\n     * @dev Indicates an error related to the current `balance` of a `sender`. Used in transfers.\n     * @param sender Address whose tokens are being transferred.\n     * @param balance Current balance for the interacting account.\n     * @param needed Minimum amount required to perform a transfer.\n     */\n    error ERC20InsufficientBalance(address sender, uint256 balance, uint256 needed);\n\n    /**\n     * @dev Indicates a failure with the token `sender`. Used in transfers.\n     * @param sender Address whose tokens are being transferred.\n     */\n    error ERC20InvalidSender(address sender);\n\n    /**\n     * @dev Indicates a failure with the token `receiver`. Used in transfers.\n     * @param receiver Address to which tokens are being transferred.\n     */\n    error ERC20InvalidReceiver(address receiver);\n\n    /**\n     * @dev Indicates a failure with the `spender`s `allowance`. Used in transfers.\n     * @param spender Address that may be allowed to operate on tokens without being their owner.\n     * @param allowance Amount of tokens a `spender` is allowed to operate with.\n     * @param needed Minimum amount required to perform a transfer.\n     */\n    error ERC20InsufficientAllowance(address spender, uint256 allowance, uint256 needed);\n\n    /**\n     * @dev Indicates a failure with the `approver` of a token to be approved. Used in approvals.\n     * @param approver Address initiating an approval operation.\n     */\n    error ERC20InvalidApprover(address approver);\n\n    /**\n     * @dev Indicates a failure with the `spender` to be approved. Used in approvals.\n     * @param spender Address that may be allowed to operate on tokens without being their owner.\n     */\n    error ERC20InvalidSpender(address spender);\n}\n\n/**\n * @dev Standard ERC-721 Errors\n * Interface of the https://eips.ethereum.org/EIPS/eip-6093[ERC-6093] custom errors for ERC-721 tokens.\n */\ninterface IERC721Errors {\n    /**\n     * @dev Indicates that an address can't be an owner. For example, `address(0)` is a forbidden owner in ERC-20.\n     * Used in balance queries.\n     * @param owner Address of the current owner of a token.\n     */\n    error ERC721InvalidOwner(address owner);\n\n    /**\n     * @dev Indicates a `tokenId` whose `owner` is the zero address.\n     * @param tokenId Identifier number of a token.\n     */\n    error ERC721NonexistentToken(uint256 tokenId);\n\n    /**\n     * @dev Indicates an error related to the ownership over a particular token. Used in transfers.\n     * @param sender Address whose tokens are being transferred.\n     * @param tokenId Identifier number of a token.\n     * @param owner Address of the current owner of a token.\n     */\n    error ERC721IncorrectOwner(address sender, uint256 tokenId, address owner);\n\n    /**\n     * @dev Indicates a failure with the token `sender`. Used in transfers.\n     * @param sender Address whose tokens are being transferred.\n     */\n    error ERC721InvalidSender(address sender);\n\n    /**\n     * @dev Indicates a failure with the token `receiver`. Used in transfers.\n     * @param receiver Address to which tokens are being transferred.\n     */\n    error ERC721InvalidReceiver(address receiver);\n\n    /**\n     * @dev Indicates a failure with the `operator`s approval. Used in transfers.\n     * @param operator Address that may be allowed to operate on tokens without being their owner.\n     * @param tokenId Identifier number of a token.\n     */\n    error ERC721InsufficientApproval(address operator, uint256 tokenId);\n\n    /**\n     * @dev Indicates a failure with the `approver` of a token to be approved. Used in approvals.\n     * @param approver Address initiating an approval operation.\n     */\n    error ERC721InvalidApprover(address approver);\n\n    /**\n     * @dev Indicates a failure with the `operator` to be approved. Used in approvals.\n     * @param operator Address that may be allowed to operate on tokens without being their owner.\n     */\n    error ERC721InvalidOperator(address operator);\n}\n\n/**\n * @dev Standard ERC-1155 Errors\n * Interface of the https://eips.ethereum.org/EIPS/eip-6093[ERC-6093] custom errors for ERC-1155 tokens.\n */\ninterface IERC1155Errors {\n    /**\n     * @dev Indicates an error related to the current `balance` of a `sender`. Used in transfers.\n     * @param sender Address whose tokens are being transferred.\n     * @param balance Current balance for the interacting account.\n     * @param needed Minimum amount required to perform a transfer.\n     * @param tokenId Identifier number of a token.\n     */\n    error ERC1155InsufficientBalance(address sender, uint256 balance, uint256 needed, uint256 tokenId);\n\n    /**\n     * @dev Indicates a failure with the token `sender`. Used in transfers.\n     * @param sender Address whose tokens are being transferred.\n     */\n    error ERC1155InvalidSender(address sender);\n\n    /**\n     * @dev Indicates a failure with the token `receiver`. Used in transfers.\n     * @param receiver Address to which tokens are being transferred.\n     */\n    error ERC1155InvalidReceiver(address receiver);\n\n    /**\n     * @dev Indicates a failure with the `operator`s approval. Used in transfers.\n     * @param operator Address that may be allowed to operate on tokens without being their owner.\n     * @param owner Address of the current owner of a token.\n     */\n    error ERC1155MissingApprovalForAll(address operator, address owner);\n\n    /**\n     * @dev Indicates a failure with the `approver` of a token to be approved. Used in approvals.\n     * @param approver Address initiating an approval operation.\n     */\n    error ERC1155InvalidApprover(address approver);\n\n    /**\n     * @dev Indicates a failure with the `operator` to be approved. Used in approvals.\n     * @param operator Address that may be allowed to operate on tokens without being their owner.\n     */\n    error ERC1155InvalidOperator(address operator);\n\n    /**\n     * @dev Indicates an array length mismatch between ids and values in a safeBatchTransferFrom operation.\n     * Used in batch transfers.\n     * @param idsLength Length of the array of token identifiers\n     * @param valuesLength Length of the array of token amounts\n     */\n    error ERC1155InvalidArrayLength(uint256 idsLength, uint256 valuesLength);\n}\n\n// lib/openzeppelin-contracts/contracts/token/ERC20/extensions/IERC20Metadata.sol\n\n// OpenZeppelin Contracts (last updated v5.1.0) (token/ERC20/extensions/IERC20Metadata.sol)\n\n/**\n * @dev Interface for the optional metadata functions from the ERC-20 standard.\n */\ninterface IERC20Metadata is IERC20 {\n    /**\n     * @dev Returns the name of the token.\n     */\n    function name() external view returns (string memory);\n\n    /**\n     * @dev Returns the symbol of the token.\n     */\n    function symbol() external view returns (string memory);\n\n    /**\n     * @dev Returns the decimals places of the token.\n     */\n    function decimals() external view returns (uint8);\n}\n\n// lib/openzeppelin-contracts/contracts/access/Ownable.sol\n\n// OpenZeppelin Contracts (last updated v5.0.0) (access/Ownable.sol)\n\n/**\n * @dev Contract module which provides a basic access control mechanism, where\n * there is an account (an owner) that can be granted exclusive access to\n * specific functions.\n *\n * The initial owner is set to the address provided by the deployer. This can\n * later be changed with {transferOwnership}.\n *\n * This module is used through inheritance. It will make available the modifier\n * `onlyOwner`, which can be applied to your functions to restrict their use to\n * the owner.\n */\nabstract contract Ownable is Context {\n    address private _owner;\n\n    /**\n     * @dev The caller account is not authorized to perform an operation.\n     */\n    error OwnableUnauthorizedAccount(address account);\n\n    /**\n     * @dev The owner is not a valid owner account. (eg. `address(0)`)\n     */\n    error OwnableInvalidOwner(address owner);\n\n    event OwnershipTransferred(address indexed previousOwner, address indexed newOwner);\n\n    /**\n     * @dev Initializes the contract setting the address provided by the deployer as the initial owner.\n     */\n    constructor(address initialOwner) {\n        if (initialOwner == address(0)) {\n            revert OwnableInvalidOwner(address(0));\n        }\n        _transferOwnership(initialOwner);\n    }\n\n    /**\n     * @dev Throws if called by any account other than the owner.\n     */\n    modifier onlyOwner() {\n        _checkOwner();\n        _;\n    }\n\n    /**\n     * @dev Returns the address of the current owner.\n     */\n    function owner() public view virtual returns (address) {\n        return _owner;\n    }\n\n    /**\n     * @dev Throws if the sender is not the owner.\n     */\n    function _checkOwner() internal view virtual {\n        if (owner() != _msgSender()) {\n            revert OwnableUnauthorizedAccount(_msgSender());\n        }\n    }\n\n    /**\n     * @dev Leaves the contract without owner. It will not be possible to call\n     * `onlyOwner` functions. Can only be called by the current owner.\n     *\n     * NOTE: Renouncing ownership will leave the contract without an owner,\n     * thereby disabling any functionality that is only available to the owner.\n     */\n    function renounceOwnership() public virtual onlyOwner {\n        _transferOwnership(address(0));\n    }\n\n    /**\n     * @dev Transfers ownership of the contract to a new account (`newOwner`).\n     * Can only be called by the current owner.\n     */\n    function transferOwnership(address newOwner) public virtual onlyOwner {\n        if (newOwner == address(0)) {\n            revert OwnableInvalidOwner(address(0));\n        }\n        _transferOwnership(newOwner);\n    }\n\n    /**\n     * @dev Transfers ownership of the contract to a new account (`newOwner`).\n     * Internal function without access restriction.\n     */\n    function _transferOwnership(address newOwner) internal virtual {\n        address oldOwner = _owner;\n        _owner = newOwner;\n        emit OwnershipTransferred(oldOwner, newOwner);\n    }\n}\n\n// lib/openzeppelin-contracts/contracts/access/Ownable2Step.sol\n\n// OpenZeppelin Contracts (last updated v5.1.0) (access/Ownable2Step.sol)\n\n/**\n * @dev Contract module which provides access control mechanism, where\n * there is an account (an owner) that can be granted exclusive access to\n * specific functions.\n *\n * This extension of the {Ownable} contract includes a two-step mechanism to transfer\n * ownership, where the new owner must call {acceptOwnership} in order to replace the\n * old one. This can help prevent common mistakes, such as transfers of ownership to\n * incorrect accounts, or to contracts that are unable to interact with the\n * permission system.\n *\n * The initial owner is specified at deployment time in the constructor for `Ownable`. This\n * can later be changed with {transferOwnership} and {acceptOwnership}.\n *\n * This module is used through inheritance. It will make available all functions\n * from parent (Ownable).\n */\nabstract contract Ownable2Step is Ownable {\n    address private _pendingOwner;\n\n    event OwnershipTransferStarted(address indexed previousOwner, address indexed newOwner);\n\n    /**\n     * @dev Returns the address of the pending owner.\n     */\n    function pendingOwner() public view virtual returns (address) {\n        return _pendingOwner;\n    }\n\n    /**\n     * @dev Starts the ownership transfer of the contract to a new account. Replaces the pending transfer if there is one.\n     * Can only be called by the current owner.\n     *\n     * Setting `newOwner` to the zero address is allowed; this can be used to cancel an initiated ownership transfer.\n     */\n    function transferOwnership(address newOwner) public virtual override onlyOwner {\n        _pendingOwner = newOwner;\n        emit OwnershipTransferStarted(owner(), newOwner);\n    }\n\n    /**\n     * @dev Transfers ownership of the contract to a new account (`newOwner`) and deletes any pending owner.\n     * Internal function without access restriction.\n     */\n    function _transferOwnership(address newOwner) internal virtual override {\n        delete _pendingOwner;\n        super._transferOwnership(newOwner);\n    }\n\n    /**\n     * @dev The new owner accepts the ownership transfer.\n     */\n    function acceptOwnership() public virtual {\n        address sender = _msgSender();\n        if (pendingOwner() != sender) {\n            revert OwnableUnauthorizedAccount(sender);\n        }\n        _transferOwnership(sender);\n    }\n}\n\n// lib/openzeppelin-contracts/contracts/token/ERC20/ERC20.sol\n\n// OpenZeppelin Contracts (last updated v5.3.0) (token/ERC20/ERC20.sol)\n\n/**\n * @dev Implementation of the {IERC20} interface.\n *\n * This implementation is agnostic to the way tokens are created. This means\n * that a supply mechanism has to be added in a derived contract using {_mint}.\n *\n * TIP: For a detailed writeup see our guide\n * https://forum.openzeppelin.com/t/how-to-implement-erc20-supply-mechanisms/226[How\n * to implement supply mechanisms].\n *\n * The default value of {decimals} is 18. To change this, you should override\n * this function so it returns a different value.\n *\n * We have followed general OpenZeppelin Contracts guidelines: functions revert\n * instead returning `false` on failure. This behavior is nonetheless\n * conventional and does not conflict with the expectations of ERC-20\n * applications.\n */\nabstract contract ERC20 is Context, IERC20, IERC20Metadata, IERC20Errors {\n    mapping(address => uint256) private _balances;\n\n    mapping(address => mapping(address => uint256)) private _allowances;\n\n    uint256 private _totalSupply;\n\n    string private _name;\n    string private _symbol;\n\n    /**\n     * @dev Sets the values for {name} and {symbol}.\n     *\n     * Both values are immutable: they can only be set once during construction.\n     */\n    constructor(string memory name_, string memory symbol_) {\n        _name = name_;\n        _symbol = symbol_;\n    }\n\n    /**\n     * @dev Returns the name of the token.\n     */\n    function name() public view virtual override returns (string memory) {\n        return _name;\n    }\n\n    /**\n     * @dev Returns the symbol of the token, usually a shorter version of the\n     * name.\n     */\n    function symbol() public view virtual override returns (string memory) {\n        return _symbol;\n    }\n\n    /**\n     * @dev Returns the number of decimals used to get its user representation.\n     * For example, if `decimals` equals `2`, a balance of `505` tokens should\n     * be displayed to a user as `5.05` (`505 / 10 ** 2`).\n     *\n     * Tokens usually opt for a value of 18, imitating the relationship between\n     * Ether and Wei. This is the default value returned by this function, unless\n     * it's overridden.\n     *\n     * NOTE: This information is only used for _display_ purposes: it in\n     * no way affects any of the arithmetic of the contract, including\n     * {IERC20-balanceOf} and {IERC20-transfer}.\n     */\n    function decimals() public view virtual override returns (uint8) {\n        return 18;\n    }\n\n    /**\n     * @dev See {IERC20-totalSupply}.\n     */\n    function totalSupply() public view virtual override returns (uint256) {\n        return _totalSupply;\n    }\n\n    /**\n     * @dev See {IERC20-balanceOf}.\n     */\n    function balanceOf(address account) public view virtual override returns (uint256) {\n        return _balances[account];\n    }\n\n    /**\n     * @dev See {IERC20-transfer}.\n     *\n     * Requirements:\n     *\n     * - `to` cannot be the zero address.\n     * - the caller must have a balance of at least `value`.\n     */\n    function transfer(address to, uint256 value) public virtual override returns (bool) {\n        address owner = _msgSender();\n        _transfer(owner, to, value);\n        return true;\n    }\n\n    /**\n     * @dev See {IERC20-allowance}.\n     */\n    function allowance(address owner, address spender) public view virtual override returns (uint256) {\n        return _allowances[owner][spender];\n    }\n\n    /**\n     * @dev See {IERC20-approve}.\n     *\n     * NOTE: If `value` is the maximum `uint256`, the allowance is not updated on\n     * `transferFrom`. This is semantically equivalent to an infinite approval.\n     *\n     * Requirements:\n     *\n     * - `spender` cannot be the zero address.\n     */\n    function approve(address spender, uint256 value) public virtual override returns (bool) {\n        address owner = _msgSender();\n        _approve(owner, spender, value);\n        return true;\n    }\n\n    /**\n     * @dev See {IERC20-transferFrom}.\n     *\n     * Skips emitting an {Approval} event indicating an allowance update. This is not\n     * required by the ERC. See {xref-ERC20-_approve-address-address-uint256-bool-}[_approve].\n     *\n     * NOTE: Does not update the allowance if the current allowance\n     * is the maximum `uint256`.\n     *\n     * Requirements:\n     *\n     * - `from` and `to` cannot be the zero address.\n     * - `from` must have a balance of at least `value`.\n     * - the caller must have allowance for ``from``'s tokens of at least\n     * `value`.\n     */\n    function transferFrom(address from, address to, uint256 value) public virtual override returns (bool) {\n        address spender = _msgSender();\n        _spendAllowance(from, spender, value);\n        _transfer(from, to, value);\n        return true;\n    }\n\n    /**\n     * @dev Moves a `value` amount of tokens from `from` to `to`.\n     *\n     * This internal function is equivalent to {transfer}, and can be used to\n     * e.g. implement automatic token fees, slashing mechanisms, etc.\n     *\n     * Emits a {Transfer} event.\n     *\n     * NOTE: This function is not virtual, {_update} should be overridden instead.\n     */\n    function _transfer(address from, address to, uint256 value) internal {\n        if (from == address(0)) {\n            revert ERC20InvalidSender(address(0));\n        }\n        if (to == address(0)) {\n            revert ERC20InvalidReceiver(address(0));\n        }\n        _update(from, to, value);\n    }\n\n    /**\n     * @dev Transfers a `value` amount of tokens from `from` to `to`, or alternatively mints (or burns) if `from`\n     * (or `to`) is the zero address. All customizations to transfers, mints, and burns should be done by overriding\n     * this function.\n     *\n     * Emits a {Transfer} event.\n     */\n    function _update(address from, address to, uint256 value) internal virtual {\n        if (from == address(0)) {\n            // Overflow check required: The rest of the code assumes that totalSupply never overflows\n            _totalSupply += value;\n        } else {\n            uint256 fromBalance = _balances[from];\n            if (fromBalance < value) {\n                revert ERC20InsufficientBalance(from, fromBalance, value);\n            }\n            unchecked {\n                // Overflow not possible: value <= fromBalance <= totalSupply.\n                _balances[from] = fromBalance - value;\n            }\n        }\n\n        if (to == address(0)) {\n            unchecked {\n                // Overflow not possible: value <= totalSupply or value <= fromBalance <= totalSupply.\n                _totalSupply -= value;\n            }\n        } else {\n            unchecked {\n                // Overflow not possible: balance + value is at most totalSupply, which we know fits into a uint256.\n                _balances[to] += value;\n            }\n        }\n\n        emit Transfer(from, to, value);\n    }\n\n    /**\n     * @dev Creates a `value` amount of tokens and assigns them to `account`, by transferring it from address(0).\n     * Relies on the `_update` mechanism\n     *\n     * Emits a {Transfer} event with `from` set to the zero address.\n     *\n     * NOTE: This function is not virtual, {_update} should be overridden instead.\n     */\n    function _mint(address account, uint256 value) internal {\n        if (account == address(0)) {\n            revert ERC20InvalidReceiver(address(0));\n        }\n        _update(address(0), account, value);\n    }\n\n    /**\n     * @dev Destroys a `value` amount of tokens from `account`, lowering the total supply.\n     * Relies on the `_update` mechanism.\n     *\n     * Emits a {Transfer} event with `to` set to the zero address.\n     *\n     * NOTE: This function is not virtual, {_update} should be overridden instead\n     */\n    function _burn(address account, uint256 value) internal {\n        if (account == address(0)) {\n            revert ERC20InvalidSender(address(0));\n        }\n        _update(account, address(0), value);\n    }\n\n    /**\n     * @dev Sets `value` as the allowance of `spender` over the `owner`'s tokens.\n     *\n     * This internal function is equivalent to `approve`, and can be used to\n     * e.g. set automatic allowances for certain subsystems, etc.\n     *\n     * Emits an {Approval} event.\n     *\n     * Requirements:\n     *\n     * - `owner` cannot be the zero address.\n     * - `spender` cannot be the zero address.\n     *\n     * Overrides to this logic should be done to the variant with an additional `bool emitEvent` argument.\n     */\n    function _approve(address owner, address spender, uint256 value) internal {\n        _approve(owner, spender, value, true);\n    }\n\n    /**\n     * @dev Variant of {_approve} with an optional flag to enable or disable the {Approval} event.\n     *\n     * By default (when calling {_approve}) the flag is set to true. On the other hand, approval changes made by\n     * `_spendAllowance` during the `transferFrom` operation set the flag to false. This saves gas by not emitting any\n     * `Approval` event during `transferFrom` operations.\n     *\n     * Anyone who wishes to continue emitting `Approval` events on the`transferFrom` operation can force the flag to\n     * true using the following override:\n     *\n     * ```solidity\n     * function _approve(address owner, address spender, uint256 value, bool) internal virtual override {\n     *     super._approve(owner, spender, value, true);\n     * }\n     * ```\n     *\n     * Requirements are the same as {_approve}.\n     */\n    function _approve(address owner, address spender, uint256 value, bool emitEvent) internal virtual {\n        if (owner == address(0)) {\n            revert ERC20InvalidApprover(address(0));\n        }\n        if (spender == address(0)) {\n            revert ERC20InvalidSpender(address(0));\n        }\n        _allowances[owner][spender] = value;\n        if (emitEvent) {\n            emit Approval(owner, spender, value);\n        }\n    }\n\n    /**\n     * @dev Updates `owner`'s allowance for `spender` based on spent `value`.\n     *\n     * Does not update the allowance value in case of infinite allowance.\n     * Revert if not enough allowance is available.\n     *\n     * Does not emit an {Approval} event.\n     */\n    function _spendAllowance(address owner, address spender, uint256 value) internal virtual {\n        uint256 currentAllowance = allowance(owner, spender);\n        if (currentAllowance < type(uint256).max) {\n            if (currentAllowance < value) {\n                revert ERC20InsufficientAllowance(spender, currentAllowance, value);\n            }\n            unchecked {\n                _approve(owner, spender, currentAllowance - value, false);\n            }\n        }\n    }\n}\n\n// src/AFRi.sol\n\ncontract AFRi is ERC20, Ownable2Step {\n    mapping(address => bool) private _admins;\n\n    event AdminAdded(address indexed admin);\n    event AdminRemoved(address indexed admin);\n\n    constructor(address owner) ERC20(\"AFRi\", \"AFC\") Ownable(owner) {\n      \n    }\n\n    modifier onlyAdmin() {\n        require(_admins[msg.sender], \"AFRi: caller is not an admin\");\n        _;\n    }\n\n    function addAdmin(address admin) public onlyOwner {\n        require(admin != address(0), \"AFRi: admin is the zero address\");\n        require(admin != owner(), \"AFRi: owner cannot be admin\");\n        require(!_admins[admin], \"AFRi: already an admin\");\n        _admins[admin] = true;\n        emit AdminAdded(admin);\n    }\n\n    function removeAdmin(address admin) public onlyOwner {\n        require(_admins[admin], \"AFRi: not an admin\");\n        _admins[admin] = false;\n        emit AdminRemoved(admin);\n    }\n\n    function isAdmin(address admin) public view returns (bool) {\n        return _admins[admin];\n    }\n\n    function mint(address to, uint256 amount) public onlyAdmin {\n        _mint(to, amount);\n    }\n}\n\n",
  "sourcePath": "/Users/macbook/Desktop/Afrione /AFRi/AFRi-smart-contract/Tron-smart-contract/contracts/AFRi.sol",
  "compiler": {
    "name": "solc",
    "version": "0.8.6+commit.0e36fba0.mod.Emscripten.clang"
  },
  "schemaVersion": "2.0.1",
  "updatedAt": "2025-08-19T11:06:19.911Z"
}